S3150800000000600020B10200084B4C0008E9450008D2
S31508000010494C0008151000085D5D00080000000046
S31508000020000000000000000000000000F1010008C8
S31508000030F7100008000000004D02000805500008EF
S31508000040CB020008CB020008CB020008CB0200084E
S31508000050CB020008CB020008CB020008CB0200083E
S31508000060CB020008CB020008CB02000819100008D2
S3150800007025100008311000083D1000084910000836
S31508000080CB02000800000000CB020008CB020008E3
S31508000090CB020008CB020008CB020008CB020008FE
S315080000A0CB020008A5500008CB020008CB020008C6
S315080000B0CB020008CB020008CB020008CB020008DE
S315080000C0CB020008CB020008CB020008CB020008CE
S315080000D0CB020008CB020008CB020008515D0008DD
S315080000E0CB020008CB020008CB020008CB020008AE
S315080000F0CB020008CB020008CB0200080000000073
S3150800010000000000CB02000800000000CB02000837
S31508000110CB02000800000000CB0200087951000855
S31508000120CB020008CB020008CB020008CB0200086D
S31508000130CB0200080000000000000000CB02000807
S31508000140CB020008CB0200080000000000000000F7
S315080001500000000000000000000000000000000091
S31508000160000000000000000000000000CB020008AC
S31508000170CB0200080000000000000000000000009C
S3150800018000000000CB02000800000000000000008C
S315080001900000000000000000000000000000000051
S315080001A00000000000000000CB020008CB02000897
S315080001B0CB020008CB020008CB02000800000000B2
S315080001C000000000CB02000800000000000000004C
S315080001D0CB020008CB020008DFF810D000F0F8FACE
S315080001E00048004735700008AFF300800060002023
S315080001F02C4B19680868B0E8F04F80F30988BFF3FC
S315080002006F8F4FF0000080F31188704700000000E0
S3150800021008480068006880F308884FF0000080F3FB
S31508000220148862B661B6BFF34F8FBFF36F8F00DFD6
S3150800023000BF00BF08ED00E0DFF80C00016841F4DC
S3150800024070010160704700BF88ED00E0EFF3098098
S31508000250BFF36F8F134B1A681EF0100F08BF20EDFF
S31508000260108A20E9F04F106009B44FF0500080F36F
S315080002701188BFF34F8FBFF36F8F07F0D1FC4FF094
S31508000280000080F3118809BC19680868B0E8F04FC7
S315080002901EF0100F08BFB0EC108A80F30988BFF370
S315080002A06F8F704754000020EFF3058070470000F9
S315080002B00648804706480047FEE7FEE7FEE7FEE7F2
S315080002C0FEE7FEE7FEE7FEE7FEE7FEE795500008D5
S315080002D0D90100082DE9F05F0546002092469B46A5
S315080002E088460646814640241BE02846414647463E
S315080002F0224600F07CF853465A46C01A914110D35C
S3150800030011461846224600F063F82D1A67EB0108D5
S315080003104F4622460120002100F05AF817EB000943
S315080003204E41201EA4F10104DFDC484631462A4628
S315080003304346BDE8F09F40EA01039B0703D009E066
S3150800034008C9121F08C0042AFAD203E011F8013BB3
S3150800035000F8013B521EF9D27047D2B201E000F80C
S31508000360012B491EFBD270470022F6E710B513464B
S315080003700A4604461946FFF7F0FF204610BD00F06E
S31508000380004230F000400AD0C10D01F56071C0F39B
S31508000390160042EA0151C20840071143704700207F
S315080003A00146704730B50B4601460020202201243D
S315080003B009E021FA02F59D4205D303FA02F5491B25
S315080003C004FA02F52844151EA2F10102F1DC30BD3B
S315080003D0202A04DB203A00FA02F1002070479140F7
S315080003E0C2F1200320FA03F3194390407047202AEC
S315080003F004DB203A21FA02F00021704721FA02F3C1
S31508000400D040C2F1200291400843194670477CB596
S315080004100023CDE900330546684600F018FA694618
S31508000420284605F0B1FD7CBD2DE9FE4F804681EAE0
S315080004300300C00F0C46009021F0004123F0004550
S31508000440B8EB0200A94105D24046214690461C4613
S315080004500B46024623F00040104347D0270DC7F34A
S315080004600A00C3F30A510290401A019040286BDA39
S31508000470C3F3130040F4801B0098924620B1002372
S31508000480D2EB030A63EB0B0B01985946C0F1400205
S315080004905046FFF79DFF06460D4650465946019AB7
S315080004A000F0A8F910EB08006141002487EA115210
S315080004B084EAE7731A4340D0009A62B3019A012A84
S315080004C04FEA075215DC001B61EB02014FF00042B0
S315080004D002EA0752CDE90042001C41F58011324676
S315080004E02B4600F0F6F903B0BDE8F08F40462146EA
S315080004F0F9E7001B61EB0201001C41F580130018A7
S315080005005B412018A2F5001747EB030140EAD570B6
S31508000510B6196D4111E06D084FEA360645EAC07511
S315080005204FEA0752001B61EB0201001C41F58011DE
S3150800053049084FEA30000019514132462B4603B0AC
S31508000540BDE8F04F00F0B6B900980122400000233C
S31508000550D0EB020263EBE073009821464FEAE074A1
S31508000560B8EB000061EB0401E9E783F000435BE7C1
S3150800057081F0004158E72DE9FE4F81EA030404F0B3
S31508000580004421F0004100944FF0000B23F0004393
S3150800059050EA01045ED052EA03045BD0C3F30A545E
S315080005A0C1F30A552C44A4F2F3340194A0FB025477
S315080005B0C1F3130141F48011C3F3130343F4801309
S315080005C001FB024400FB034E840A970A44EA81545D
S315080005D047EA8357A4FB076802958D0A05FB07853A
S315080005E04FEA932C04FB0C542705029D4FEA065844
S315080005F047EA1637B5EB08056EEB070C870E920E21
S3150800060047EA811742EA8312A7FB0201B6EB0B0100
S3150800061064EB00042B0D43EA0C335E1844EB1C50C4
S31508000620DA465146E7FB0201C5F313044FEA0B33DA
S3150800063043EA14534FEA0432019C43EA0603A4F141
S315080006400C040294009CCDE900B400F042F903B012
S31508000650BDE8F08F00200146F9E72DE9F04D81EA63
S31508000660030404F0004B21F0004514464FF0000A3D
S3150800067023F0004150EA050220D054EA01021DD0B9
S31508000680C5F30A570246C5F31303C1F31300C1F3B2
S315080006900A5640F4801543F48013A7EB0608101B8E
S315080006A0D64608F2FD3873EB050002D308F10108B7
S315080006B001E092185B41B8F1000F03DA0020014609
S315080006C0BDE8F08D00204FF48011064684460EE002
S315080006D0171B73EB050705D3121B63EB05030643CC
S315080006E04CEA010C49084FEA300092185B4150EA7F
S315080006F00107EDD152EA030012D082EA040083EA28
S315080007000501084305D0101BAB4106D20122002380
S3150800071006E000224FF0004302E06FF0010253109A
S315080007201AEB06004CEB085110EB0A0041EB0B01E3
S31508000730BDE8F04D00F0BEB8C1F30A52C1F313018B
S3150800074040F2FF3341F480119A4202DA0020014652
S31508000750704740F233439A42A2F2334202DC5242D5
S31508000760FFF745BEFFF734BE30B5041E71F100042D
S3150800077004DB4FF00044404264EB0101141E73F1A0
S31508000780000405DB1C464FF00043524263EB0403AA
S31508000790994208BF904230BD002801DBC0F10040F5
S315080007A0002901DBC1F10041814202D24FF000402D
S315080007B004E04FF0005001D14FF0C0404FEA2062EC
S315080007C0EFF3008162F31F6181F300887047000030
S315080007D0064C074D06E0E06840F0010394E8070080
S315080007E098471034AC42F6D3FFF7FAFCBC880008E9
S315080007F0DC880008202A06DBCB17203A41FA02F0EB
S3150800080043EAE07306E041FA02F3D040C2F120025F
S3150800081091400843194670470FB4002300B589B0C4
S315080008200CA900910B996FF00042CB601E4B069302
S315080008301E4B07930423CDE901321D4A089202464E
S315080008406B46002000F02CF909B05DF814FB70B572
S3150800085086B006464FF0FF300091CDE90101002031
S3150800086015460C4604903246694604A8FFF7D4FF9D
S3150800087002460498211825B108B1084600E020462A
S315080008802860049800280DD0002A02DD00988842C6
S3150800089008D0081B0094CDE901043246694604A82D
S315080008A0FFF7BAFF06B070BDD90C0008F70C0008B0
S315080008B06F09000810B5141E73F1000408DA401C0D
S315080008C041F1000192185B411A4301D120F0010061
S315080008D010BD2DE9F04D92469B4611B1B1FA81F251
S315080008E002E0B0FA80F220329046FFF771FD044626
S315080008F00F4640EA0A0041EA0B0153465A460843A6
S3150800090013D0114653EA010019D0C8F140025046E7
S31508000910FFF76DFD05460E46504659464246FFF717
S3150800092057FD084305D0012004E020463946BDE8B6
S31508000930F08D0020054346EAE0762C4337430A98B3
S315080009406305E40AA0EB08000022FD0A44EA4754BE
S315080009500A3002D500200146E9E701051019694168
S31508000960DDE9084500196941BDE8F04DA2E7C0B2C6
S315080009704FF4F05100F006BA2DE9FF4F087883B01E
S315080009809946FF2805D0491C2D2804D000240020AC
S3150800099008E000200BE00124F9E700EB800003EBF8
S315080009A04000491C0B78FF2BF7D104B140420023C5
S315080009B00293147819461D462D2C01D02B2C04D1F0
S315080009C0521C2D2C13D000240294AA461478FF2C0E
S315080009D00FD00A25A3FB057801FB05814FF0000C13
S315080009E003FB0C11521CE3194AEB0101EEE7012443
S315080009F0EAE7814453EA010002D019F5C87F06DA0E
S31508000A0003980021C0E9001107B0BDE8F08F002562
S31508000A10AE4E2F46DFF8B882184600F0FEF9CDE94B
S31508000A200001B9F1000002DAC9F1000400E0044649
S31508000A300023A74A1AEB030B42EB045A12E0E0071D
S31508000A4007D02A46334638464146FFF794FD0746FF
S31508000A5088462A46334610461946FFF78CFD054652
S31508000A600E466410002CEAD1DDE90001B9F1000F49
S31508000A705A46534606DAFFF7F0FD3A464346FFF76D
S31508000A80ECFD05E0FFF777FD3A464346FFF773FDB1
S31508000A90029A0AB181F00041039AC2E90001B3E75C
S31508000AA02DE9FF4F1F468DB0D7E901464FF0FF38B5
S31508000AB02E2045464FF000090B90B9696D1C0E981B
S31508000AC08847396A824688470028F6D1BAF1FF3F37
S31508000AD00AD024F4D064002E11DDBAF12B0F08D009
S31508000AE0BAF12D0F0BD102E0404611B08DE744F460
S31508000AF08064B9696D1C0E9888478246761E6946D9
S31508000B00600501D52D2000E02B208DF8000001F1AD
S31508000B10010B0DF1200809E0B9696D1C0E9888478C
S31508000B2082460F9844F40074761E0560002E02DD96
S31508000B30BAF1300FF0D00B998A453ED144F08004C3
S31508000B4006E00F99681CA9F1010944F400740860CD
S31508000B50B9696D1C761E0E98884782463028F0D0F3
S31508000B602BE00B998A4505D1200603D444F080046E
S31508000B70761E18E0504605F0E7FA08B30DF11301A2
S31508000B80761E44F400748B4508D2AAF130000BF89F
S31508000B90010B200607D5A9F1010003E0200602D4BF
S31508000BA009F101008146A00502D50F99681C086065
S31508000BB0B9696D1C0E9888478246002ED1DC53E031
S31508000BC0002E51DDBAF1650F02D0BAF1450F4BD1AF
S31508000BD0A00549D5B9696D1C24F44074761E0E9893
S31508000BE088478246002E0CDD2B2804D0BAF12D0F3B
S31508000BF007D144F48074B9696D1C0E9888478246FB
S31508000C00761EE00501D52D2100E02B2108F8011BF1
S31508000C10CDF82C8021E00DF12901761E44F40074EC
S31508000C2088450CD2AAF1300010F0FF0088F80000C1
S31508000C3002D10B99884509D908F1010806E0E005B3
S31508000C4001D5244801E042F20F708146B9696D1C4E
S31508000C500E98884782460F980560002E04DD504698
S31508000C6005F072FA0028D6D1F9690E988847FF2050
S31508000C708BF8000088F800000020069007904B4685
S31508000C806A4608A906A8FFF777FEA00502D46FF002
S31508000C9001002AE714F0240F0AD0E00714D1DDE991
S31508000CA006123868031D3B600068C0E900120BE0B5
S31508000CB0DDE9060100F048F80146E00704D1386886
S31508000CC0021D3A600068016028460EE700001440DD
S31508000CD00000F03FF1D8FFFF426842B1016811F801
S31508000CE0013B23B1521EC0E9001218467047012184
S31508000CF0C160881E704742685AB1C368016843B923
S31508000D0083688B4205D0491E521CC0E90012002098
S31508000D1070474FF0FF30704730B5041E71F100047C
S31508000D2004DB4FF00044404264EB0101141E73F1EA
S31508000D30000405DB1C464FF00043524263EB0403F4
S31508000D408B4208BF824230BD01F0004330B421F027
S31508000D50004150EA010206D00A0DA2F56072C1F3FD
S31508000D601301002A02DC30BC00207047440F44EA15
S31508000D70C104C100E01830BC00EBC25000F016B840
S31508000D80002070477F2801D9002208E0064A02EBB6
S31508000D905002C007127800D1120902F00F02012092
S31508000DA09040084070470000388000080029A8BF16
S31508000DB07047401C490008BF20F00100704710B476
S31508000DC0B0FA80FC00FA0CF050EA010404BF10BC2B
S31508000DD0704749B1CCF1200421FA04F411FA0CF158
S31508000DE018BF012121430843A3EB0C01CB1D4FEA91
S31508000DF000614FEA102042BF002010BC704700EB8C
S31508000E00C35010440029A4BF10BC7047401C4900B9
S31508000E1008BF20F0010010BC70470EB540F23342FF
S31508000E2002920022CDE900221346FFF752FD03B0D5
S31508000E3000BD30B58C1810F8012B12F00F0301D144
S31508000E4010F8013B120906D110F8012B03E010F83F
S31508000E50015B01F8015B5B1EF9D101E001F8013B7A
S31508000E60521EFBD1A142E6D3002030BD10B5846ADC
S31508000E70E16D11F0500F06D0E16DC90625D5204663
S31508000E8000F04CFF10BDE06D40F40070E06520688E
S31508000E900168090716D503F0C4FB78B12068C06855
S31508000EA0800400280ADBE06D20F48070E065E06DC0
S31508000EB0C00403D4E06D40F00100E065204600F070
S31508000EC02BFF10BDC0688007EBE7616D496BBDE875
S31508000ED01040084710B5806AC16D41F04001C165F0
S31508000EE0016E41F00401016600F018FF10BD10B54F
S31508000EF0806A00F012FF10BD70B50446006881686C
S31508000F008268C1F3400112F0010F28D039BB81680D
S31508000F1001F00D01012914D18168124A1140891C7A
S31508000F20816021680320086001F0C6FB054612E0CF
S31508000F3001F0C2FB401B02280DD920688068C00753
S31508000F4009D0E06D40F01000E065206E40F0010029
S31508000F502066012070BD20688068C007E8D100209F
S31508000F6070BD0000C0FFFF7FF8B504460020009062
S31508000F702068816811F0010F41D18168214A114228
S31508000F802ED18168D5432940491C81601E48806856
S31508000F9000F0E07000020DD51C481D490068B0FB42
S31508000FA0F1F0401C00EB4000800000E0401E00907D
S31508000FB00028FBD101F080FB06461BE0816811F092
S31508000FC0010F03D181682940491C816001F074FB37
S31508000FD0801B02280ED920680068C043C00709D0C4
S31508000FE0E06D40F01000E065206E40F001002066DC
S31508000FF00120F8BD20680168C943C907DED1002071
S31508001000F8BD00003F0000800003005018000020D3
S31508001010400D0300FEE70000014801F006B9000094
S31508001020B4050020014801F000B9000014060020AC
S31508001030014801F0FAB8000018030020014801F041
S31508001040F4B80000B8020020014801F0EEB800002C
S31508001050C00400200D4902688A4201D20C4901E009
S315080010600B492031D2B21423083AB2FBF3F2436C8F
S3150800107002F01F0223F003031944816404498031F6
S31508001080C1640121914001657047000008040240CF
S31508001090000802400179074A02EB81024265054AC7
S315080010A04432491E826501F01F0201219140C16543
S315080010B070470000FC08024030B5D0E9134565606A
S315080010C0446D14B1D0E91645656090F8444004F0C3
S315080010D01F050124AC40056C6C6004686360836876
S315080010E0102B036803D099600068C26030BD9A600F
S315080010F00068C16030BD704772B6FEE710B52DEDC9
S31508001100048BF0EE419AF0EE408AB0EE608AB0EEBB
S31508001110690A06F055F8B0EE409AB0EE690A06F08C
S3150800112091F869EE281AB0EE401A69EE080A41EEFF
S31508001130481A41EE280ABDEC048BBDE81040B0EE13
S31508001140610A05F0CFBE0000F8B5002604460096F1
S3150800115090F858000D4601280BD0012084F8580055
S315080011602046FFF7C9FE0100E06D04D040F01000EC
S315080011702AE00220F8BD20F4885040F00200E0651D
S3150800118020688268134B1A4005F080431A4342F0E0
S3150800119000428260104A20680EE0009B5B1C0093A8
S315080011A0934209D3E06D20F0020040F01000E0659C
S315080011B084F858600120F8BD8368DB0FEDD1E06D37
S315080011C020F0020040F00100E06584F85860084607
S315080011D0F8BD0000C0FFFF3F02DE04002DE9F84F0E
S315080011E04FF000080446CDF800800D4694F85820C4
S315080011F0DFF8EC93616947464046012A0AD0012682
S31508001200F84A84F8586041B1296A012905D0A36EC5
S31508001210EBB129E00220BDE8F88F6868092838D1C3
S31508001220A96A4FF4785041B12B6801F07C0100EAB5
S3150800123053400843E96A084302E0296800EA514036
S315080012402168CB6C13400343CB64606621E0C4E994
S315080012501971A96A286A31B101F07C01401E084358
S31508001260E96A084300E0401E29682B79C1F38461C6
S3150800127003F01F0399400143A06E401EA066636EEB
S3150800128043EA0103636604D12068C16C114019431F
S31508001290C164206803F0B9F958B995F8250098B1E2
S315080012A02068C16895F8262021F4401141EA425188
S315080012B0C160206803F0B1F98246206803F0A5F9F9
S315080012C05AEA00000DD0FBE095F8260095F82410A0
S315080012D0400540EA01512068C26822F440121143D1
S315080012E0E6E7A86A30B1E86A20B195F82500012832
S315080012F05ED003E095F82500012804D02068C1686F
S3150800130021F0007103E02068C16841F00071C160F6
S3150800131095F83000012852D02068016921F00201B1
S315080013200161AA6829682068B2F1004F38D003F035
S315080013308FF92068416921F0004141612068696997
S31508001340C268C2F3C102520091402A69042A44D0F5
S3150800135000EB82002B68026EDFF88CC203F0F843BC
S3150800136002EA0C020B431A4342F000410166206868
S315080013702A69A96900EB8200026E22F080720A438C
S315080013800266297F22682869012923D05FF00001B7
S3150800139002EB8000026E22F000720A4302668FE0BA
S315080013A0002203F055F92068416941F00041C4E77D
S315080013B0E06D40F02000E0654FF00108A8E7D5E9A8
S315080013C00D1001432068026922F4FF7242F00202FE
S315080013D01143A5E74FF00071DAE7002103F00BF996
S315080013E0400320684FF0000172D003F004F990FA28
S315080013F0A0F0B0FA80F1286842036ED090FAA0F007
S31508001400B0FA80F0814204D100221146206803F028
S3150800141036F90121206803F0EEF8400320684FF002
S3150800142001015DD003F0E7F890FAA0F0B0FA80F178
S315080014302868420359D090FAA0F0B0FA80F08142A9
S3150800144004D100220121206803F019F9022120683D
S3150800145003F0D1F8400320684FF0020148D003F0AA
S31508001460CAF890FAA0F0B0FA80F12868420344D08E
S3150800147090FAA0F0B0FA80F0814204D1002202214D
S31508001480206803F0FCF80321206803F0B4F8400351
S3150800149020684FF0030133D003F0ADF890FAA0F0BE
S315080014A0B0FA80F1286842032FD090FAA0F0B0FA7B
S315080014B080F0814204D100220321206803F0DFF87E
S315080014C02068816811F0010F22D0B6E000E004E040
S315080014D003F091F8C0F384618DE7C0F3846091E767
S315080014E003F089F8C0F38461A2E7C0F38460A6E735
S315080014F003F081F8C0F38461B7E7C0F38460BBE703
S3150800150003F079F8C0F38461CCE7C0F38460D0E7D0
S315080015102A7B296850F8B03FC1F3120C23EA0C0362
S3150800152002F0180C314A22FA0CF20A4013430360FF
S31508001530E96849457ED1286841031CD090FAA0F194
S31508001540B1FA81F1491C01F01F0109294FEA40311E
S3150800155032D8002912D000BF90FAA0F1B1FA81F171
S3150800156001F1010101F01F0106FA01F609D100BFD8
S31508001570C0F3846109E0C0F38461E3E7C0F38461E2
S31508001580EEE790FAA0F1B1FA81F101F1010101F05B
S315080015901F0146EA816102D1C0F3846003E090FA34
S315080015A0A0F0B0FA80F000F1010000F01F0000EB97
S315080015B0400041EA00513AE000290ED090FAA0F125
S315080015C0B1FA81F101F1010101F01F0106FA01F6F4
S315080015D00ED100BFC0F384610EE0C0F38461F1E769
S315080015E000007F400040100400F0FF03FFFF0700E3
S315080015F090FAA0F1B1FA81F101F1010101F01F01A0
S3150800160046EA816102D1C0F3846003E090FAA0F053
S31508001610B0FA80F000F1010000F01F002B4A00EB41
S31508001620400002EB005041EA000141F00071AA684F
S31508001630206800E001E003F00BF825482A6802421A
S3150800164040D024488168244B01F0E0719A4202D0C8
S31508001650224B9A421BD10B0219D42268B2F1A04F31
S3150800166030D1826841F4000122F0E0720A438260B8
S315080016701B481C490068B0FBF1F0801C00EB4000D9
S31508001680800000E0401E00900028FBD11AE0164DAD
S31508001690164BAA4207D1CD0105D422689A4211D029
S315080016A041F0807109E0124DAA420BD14A0209D4D1
S315080016B022689A4206D041F48001826822F0E072DC
S315080016C00A43826084F858704046A4E5000020FE6C
S315080016D00000088000030050000021C31000C090DD
S315080016E018000020400D0300000052C700010050FA
S315080016F0000084CB2DE9F04104464548806800F097
S315080017001F05206802F081FF08BB2168C868C96CFC
S3150800171000F0004011F4C07F00D190B194F8580051
S31508001720012814D0012084F858002046FFF71CFC35
S3150800173001004FF000020CD084F858200846BDE896
S31508001740F081E06D40F02000E0650120F7E7022017
S31508001750F5E7E06DC00504D5206E20F00800206688
S3150800176000E02266E06D42F20103984340F480509F
S31508001770E065284B20684FF0A046984201D13746CD
S3150800178000E00746874200D01DB9E76D27F48017A9
S31508001790E7656027076084F858202068C2689202C7
S315080017A003D5426842F480624260A069082820682E
S315080017B0426807D022F0400242602068426842F040
S315080017C0200206E022F0200242602068426842F0C9
S315080017D0400242602068984201D1324600E0024643
S315080017E0824209D045B1062D06D0072D04D0E06DFA
S315080017F040F48010E065A1E7C26812F0007F9DD131
S315080018008268054B1A4042F00802826096E700009B
S315080018100003005000010050C0FFFF7F2DE9F0478C
S31508001820044690F858009CB00E464FF0000901286F
S3150800183015D0012084F858000025179518952068BA
S315080018404FF0A04840450ED1284F0097384602F081
S31508001850E4FE8246206802F0E0FE60B10EE0022057
S315080018601CB0BDE8F087E06D40F02000E06584F824
S3150800187058500120F4E7BAF1000F09D0E06D40F0A6
S315080018802000E0654FF0010984F858504846E7E71C
S315080018901748326840F61F71002A826822F46042AF
S315080018A016D094F8383042EA433273681A43826095
S315080018B0D8F80820BB6802F0010203F001031A43B6
S315080018C0E2D1B36832681A4383688B431A430BE044
S315080018D08260D8F80820BB6802F0010203F0010311
S315080018E01A43D1D182688A438260CDE7000100504D
S315080018F0000300502DE9F84F00270446009790F89A
S315080019005800DFF8E0930D46B846012811D00126A5
S3150800191084F85860206802F07CFE60B1E06D40F003
S315080019202000E0655FF0010784F858803846BDE876
S31508001930F88F0220FBE7D5E900210C23206803EA8B
S3150800194091131844036B01F01F014FF01F0C0CFA9A
S3150800195001FCC2F3846223EA0C038A40134303633F
S31508001960206802F056FE8246206802F04AFE5AEACD
S3150800197000003CD1AA6829682068B2F1004F37D028
S3150800198002F057FE2068416921F000414161206854
S315080019906969C268C2F3C102520091402A69042AE1
S315080019A031D000EB82002B68026EDFF83CC303F0EF
S315080019B0F84302EA0C020B431A4342F0004101665F
S315080019C020682A69A96900EB8200026E22F08072FB
S315080019D00A430266297F22682869012910D0002156
S315080019E002EB8000026E22F000720A4302667DE076
S315080019F0002202F01EFE2068416941F00041C5E759
S31508001A004FF00071ECE7002102F0EFFD400320687B
S31508001A104FF0000172D002F0E8FD90FAA0F0B0FA9B
S31508001A2080F1286842036ED090FAA0F0B0FA80F0F0
S31508001A30814204D100221146206802F018FE0121D5
S31508001A40206802F0D2FD400320684FF001015DD006
S31508001A5002F0CBFD90FAA0F0B0FA80F128684203B4
S31508001A6059D090FAA0F0B0FA80F0814204D1002251
S31508001A700121206802F0FBFD0221206802F0B5FD75
S31508001A80400320684FF0020148D002F0AEFD90FAFC
S31508001A90A0F0B0FA80F12868420344D090FAA0F08A
S31508001AA0B0FA80F0814204D100220221206802F0B7
S31508001AB0DEFD0321206802F098FD400320684FF000
S31508001AC0030133D002F091FD90FAA0F0B0FA80F14C
S31508001AD0286842032FD090FAA0F0B0FA80F081422D
S31508001AE004D100220321206802F0C1FD2068816824
S31508001AF011F0010F22D0ACE000E004E002F075FD21
S31508001B00C0F384618DE7C0F3846091E702F06DFD50
S31508001B10C0F38461A2E7C0F38460A6E702F065FD1E
S31508001B20C0F38461B7E7C0F38460BBE702F05DFDEC
S31508001B30C0F38461CCE7C0F38460D0E72A7B2968C8
S31508001B4050F8B03FC1F3120C23EA0C0302F0180C4C
S31508001B50664A22FA0CF20A4013430360E9684945CB
S31508001B6077D1286841031CD090FAA0F1B1FA81F127
S31508001B70491C01F01F0109294FEA403132D80029D2
S31508001B8012D000BF90FAA0F1B1FA81F101F101017A
S31508001B9001F01F0106FA01F609D100BFC0F38461FE
S31508001BA009E0C0F38461E3E7C0F38461EEE790FAE5
S31508001BB0A0F1B1FA81F101F1010101F01F0146EA34
S31508001BC0816102D1C0F3846003E090FAA0F0B0FA14
S31508001BD080F000F1010000F01F0000EB400041EA30
S31508001BE0005132E000290ED090FAA0F1B1FA81F145
S31508001BF001F1010101F01F0106FA01F606D100BF45
S31508001C00C0F3846106E0C0F38461F1E790FAA0F1BD
S31508001C10B1FA81F101F1010101F01F0146EA816182
S31508001C2002D1C0F3846003E090FAA0F0B0FA80F025
S31508001C3000F1010000F01F002D4A00EB400002EB06
S31508001C40005041EA000141F00071AA68206802F0DC
S31508001C50F0FC28482A6802423FF466AE26488168A6
S31508001C60264B01F0E0719A4202D0254B9A421CD1CC
S31508001C700B021AD42268B2F1A04F7FF455AE8268DF
S31508001C8041F4000122F0E0720A4382601D481E49B1
S31508001C900068B0FBF1F0401C00EB4000800000E05B
S31508001CA0401E00900028FBD13EE6184D184BAA426C
S31508001CB007D1CD0105D422689A42F5D041F080714A
S31508001CC009E0144DAA42EFD14A02EDD422689A429D
S31508001CD0EAD041F48001826822F0E0720A43826009
S31508001CE022E6000000007F4000F0FF03FFFF070028
S31508001CF0000020FE0000088000030050000021C3F9
S31508001D001000C09018000020400D0300000052C7C4
S31508001D1000010050000084CB7047704770470000F0
S31508001D20F8B54FF0000504002E46009502D0E06D88
S31508001D3010B107E00120F8BD204600F0EBF8266652
S31508001D4084F8586020688168C1F3407119B18168C8
S31508001D50684A1140816020688168C1F3007189B9B9
S31508001D608168654A114041F0805181606348644941
S31508001D700068B0FBF1F04000801C00E0401E0090B7
S31508001D800028FBD120688168C1F3007141B9E16D73
S31508001D9041F01001E165216E41F00101216601253E
S31508001DA002F037FCE16DC90600D430B1E06D40F0B1
S31508001DB01000E06501252846F8BDE06D20F4807026
S31508001DC040F00200E0652068806810F0010F11D12C
S31508001DD04FF0A04080684B4900F00100896801F087
S31508001DE00101084306D148486168826822F47C12DA
S31508001DF00A438260E168E06B627F0843A16841EAB2
S31508001E004231084394F8241040EA0140012904D1DC
S31508001E10218D3E4A02EB41410843E16A29B101F4AA
S31508001E207871226B014342EA01002268D168384B77
S31508001E3019400143D16020680169626B21F0406155
S31508001E4011430161206802F0DCFB70BB207F94F827
S31508001E503810800340EA41022168C86844F2020348
S31508001E6098431043C86020690028206801690AD091
S31508001E7041F480310161206850F8C01F22696FF370
S31508001E800D01114307E021F480310161206850F803
S31508001E90C01F6FF30D01016094F8400001280CD0B3
S31508001EA02068016921F00101016160690128206843
S31508001EB0016B21F00F0111D013E0D4E91101084399
S31508001EC0D4E913121143084321680A6940F2FC73E6
S31508001ED09A43104340F001000861E6E7226A521E61
S31508001EE011430163E06D20F0020040F00100E06557
S31508001EF061E70000C0FFFF5FC0FFFF7F18000020FA
S31508001F00400D030000010050000300500000FEFFD2
S31508001F100740F0FF2DE9F04F97B00646142111A8A7
S31508001F20FEF722FA44216846FEF71EFA4FF40040EF
S31508001F30316800258203424F424C4FF003084FF0A8
S31508001F4080094FF4807A4FF4806BB1F1A04F10D01E
S31508001F503D4B994242D10F920090684600F0D2FC60
S31508001F6008B1FFF7C9F83868401C3860012838D02E
S31508001F703FE00F920090684600F0C4FC08B1FFF7F6
S31508001F80BBF83868401C3860012807D1E06C40F47B
S31508001F900050E064E06C00F400501690E06C40F0ED
S31508001FA00100E064E06C139500F0010016900F2024
S31508001FB0CDE9110811A94FF0904000F04BFA244CD6
S31508001FC0224801C40520E4E802052020A4E8200EE2
S31508001FD064E807051E482BE07465A66217B0BDE8DD
S31508001FE0F08FE06C40F40050E064E06C00F40050C0
S31508001FF01690E06C40F00200E064E06C139500F087
S31508002000020016900420CDE9110811A9114800F024
S3150800201021FA0F4C0D486034143801C42420E4E832
S3150800202002052020A4E8200E64E807050848603069
S3150800203000F058F90028CFD0FFF75EF8CCE700008B
S315080020400000002000100240000100504400024039
S31508002050B8020020000400482DE9F041044634483F
S3150800206017468846806800F01F05206802F0D1FAF6
S3150800207000285AD194F85800012856D0012084F82F
S315080020805800002625B1052D02D0092D00D003E001
S315080020902046FEF769FF18B184F85860BDE8F0815C
S315080020A0E06D40F60161884340F48070E06521499F
S315080020B02068884202D14FF0A04100E001468142E3
S315080020C000D01DB9E06D20F48010E065E06DC00415
S315080020D004D5206E20F00600206600E02666616DB5
S315080020E01548C862616D15480863616D14484863F0
S315080020F021681C20086084F858602068416841F00F
S31508002100100141602068C16841F00101C160216881
S315080021103B4642464031606D00F044F921688A68C2
S31508002120084B1A40121D8A60B8E70220B6E700007D
S3150800213000030050000100506D0E0008EF0E000865
S31508002140D50E0008C0FFFF7F10B590F82530002196
S315080021500122022B03D00421C163012122E0036876
S315080021601C6824F00E041C60836C1C6824F48074BC
S315080021701C6003681C6824F001041C6090F8443055
S31508002180046C03F01F0302FA03F36360D0E9133407
S315080021905C60436D33B11C6824F480741C60D0E91C
S315080021A016345C6080F82520002280F82420084632
S315080021B010BD70B590F82520002401212346022A77
S315080021C007D00422C26380F8251080F82430012441
S315080021D029E00268156825F00E051560026815687D
S315080021E025F001051560826C156825F48075156063
S315080021F090F84420056C02F01F0201FA02F26A60A8
S31508002200D0E913255560426D32B1156825F48075FD
S315080022101560D0E91625556080F8251080F8243019
S31508002220816B01B18847204670BDF0B4016C0C681B
S3150800223001680D6890F8442002F01F06042202FA8D
S3150800224006F3234211D06B070FD50B689B0603D400
S315080022500B6823F004030B6090F8441001F01F018B
S315080022608A40016C4A60016B1DE0022303FA06F7F7
S3150800227027424FF0000C4FF0010218D0AF0716D5D1
S315080022800C68A40605D40C6824F00A040C6080F8CF
S31508002290252090F8441001F01F018B40016C4B601B
S315080022A080F824C0C16A00291AD0F0BC0847082360
S315080022B0B340234214D02B0712D50B6823F00E0324
S315080022C00B6090F84410036C01F01F0102FA01F14B
S315080022D05960C26380F8252080F824C0416BE2E784
S315080022E0F0BC704770B504000CD02B4A2168142046
S315080022F0914209D2294A0A44B2FBF0F08000606490
S3150800230027480AE0012070BD234A52420A44B2FB1C
S31508002310F0F080006064204808382064022084F8C1
S3150800232025000A6847F6F0708243D4E90203184389
S31508002330D4E904352B431843A3691843E3691843C2
S31508002340236A1843104308602046FEF783FEA068F8
S315080023500025B0F5804F00D16560A16C2079086032
S31508002360D4E9130141606068401E032808D8204656
S31508002370FEF790FE606D0560D4E91601416002E043
S315080023806565A565E565E563012084F8250084F89B
S315080023902450002070BD000008040240F8FFFDBF6D
S315080023A00000024070B5044690F824000025012874
S315080023B00CD0012084F8240094F825600020012E12
S315080023C006D084F824000225284670BD022070BD78
S315080023D0022684F82560E0632068066826F0010670
S315080023E006602046FEF768FE206B00282068016814
S315080023F002D041F00E0106E021F0040101602068D8
S31508002400016841F00A010160A06C0168C90303D59F
S31508002410016841F480710160606D18B1016841F48A
S31508002420807101602068016841F001010160CBE715
S3150800243070B5044600F040F90546601C02D0044811
S315080024404068044400F038F9401BA042FAD370BD36
S315080024501C0000202DE9F04FDFF82092002301260A
S315080024600324A9F1040B85B00F2709F1040AABF17F
S31508002470040EFAE006FA03F52A407CD091F804C067
S315080024800CF0030CBCF1010F02D0BCF1020F26D1EF
S31508002490D0F808C0CDF800C04FEA430C04FA0CF88F
S315080024A0CDF810C0DDF800C02CEA080CCDF800C045
S315080024B0D1F80C80DDF810C008FA0CF8DDF800C079
S315080024C048EA0C08C0F80880D0F804C02CEA050CC5
S315080024D00D79C5F300159D4045EA0C0545600D7953
S315080024E0ED43AD070ED0C5684FEA430804FA08FC69
S315080024F025EA0C05D1F808C00CFA08FC4CEA050CCC
S31508002500C0F80CC00D7905F00305022D16D1DD08BB
S3150800251000EB850CCDF808C0DCF820805D074FEA93
S31508002520D56C07FA0CF528EA05080D6905FA0CF5C5
S31508002530DDF808C045EA0805CCF8205005684FEADA
S31508002540430CCDF808C004FA0CFC25EA0C0591F8F2
S3150800255004C00CF00308DDF808C008FA0CF848EACD
S315080025600508C0F800804D6815F4403F7CD0444DFE
S31508002570D5F860C000E077E04CF0010CC5F860C003
S315080025802D6E23F0030C05F0010500953D4D6544BD
S315080025900295AD684FEA837C4FEA1C7807FA08FC77
S315080025A025EA0C05B0F1904F06D0DFF8DCC060458F
S315080025B005D14FF0010C20E04FF0000C1DE0DFF8CC
S315080025C0CCC0604502D14FF0020C16E0DFF8C0C05F
S315080025D0604502D14FF0030C0FE0DFF8B8C0604544
S315080025E002D14FF0040C08E0DFF8ACC0604502D118
S315080025F04FF0050C01E04FF0060C0CFA08FC4CEA0B
S31508002600050C029DC5F808C0D9F80050CC46D1F88B
S31508002610048095435FEAC82800D51543CCF80050D6
S31508002620DAF80050D446D1F8048095435FEA882842
S3150800263000D51543CCF80050DBF80050DC46D1F83D
S31508002640048095435FEA883800D51543CCF80050D6
S31508002650DEF80050F446D1F8048095435FEAC8389E
S3150800266000D51543CCF800505B1C0A6832FA03F50E
S315080026707FF400AF05B0BDE8F08F00000804014004
S31508002680001002400000014000040048000800480D
S31508002690000C00480010004800140048426921EA6E
S315080026A002030A4043EA0241816170470AB1816127
S315080026B070478162704700000148806870470000D3
S315080026C01C000020024881684268114481607047F6
S315080026D01C00002010B50024032000F09BF80F20F2
S315080026E000F008F808B1012401E000F047F8204698
S315080026F010BD000030B505461B4887B0816D41F016
S3150800270020018165806D06A900F02000009001A8CF
S3150800271000F020FB00F03EFB1449154AB0FBF1F12E
S315080027201448491E0260416040F2E7320021C0E9C0
S315080027300321816001F05FF8040012D10D4801F011
S31508002740D3F804000DD1372000F036F8102D07D243
S3150800275000222946372000F03DF80748056000E0CA
S31508002760012407B0204630BD0010024040420F0049
S3150800277000140040DC0300201C0000200D4808B5AA
S31508002780016E41F001010166016E01F0010100913F
S31508002790816D41F080518165806D002200F0805086
S315080027A000900F21901E00F015F8BDE8084000F0D3
S315080027B0A1B8000000100240002809DB00F01F0243
S315080027C0012191404009800000F1E020C0F8001185
S315080027D070470000F0B40E4B1B680C46C3F3022387
S315080027E0C3F10705042D00D90425191D072901D2AF
S315080027F0002300E0DB1E012606FA05F1491E2140EA
S3150800280099409E40761E16403143F0BC03F0C2BA8A
S315080028100CED00E0064900F0070208684FF6FF03D2
S31508002820184040EA0220034A104308607047000037
S315080028300CED00E00000FA052B492C4B0A68322102
S315080028404A432B4940B1B0F5007F086829D020F4E7
S31508002850C06040F480602CE00868C0F3412002287C
S3150800286004D051F8800F20F4807022E0D1F880005F
S3150800287020F48070C1F88000086820F4C06040F435
S3150800288000700860B2FBF3F0401C00E0401E4A6985
S31508002890520501D50028F9D1486940050AD5032013
S315080028A07047C0F34120022806D051F8800F40F443
S315080028B08070086000207047D1F8800040F480706E
S315080028C0C1F88000086820F4C06040F40070086011
S315080028D0B2FBF3F0401C00E0401E4A695205DBD506
S315080028E00028F9D1D8E700001800002040420F0060
S315080028F0007000400248816841F480418160704759
S31508002900007000402DE9F8430446006800269D4DF6
S3150800291000035ED5A86D0027C00008D4A86D40F056
S315080029208050A865A86D012700F080500090DFF858
S315080029305892D9F8001041F48071C9F80010FFF7D1
S31508002940BBFE804606E000BFFFF7B6FEA0EB080018
S3150800295002282BD8D9F80000C005F5D5D5F890007F
S3150800296010F4407014D0216C814211D0D5F8900033
S31508002970D5F8901020F4407041F48031C5F89010D5
S31508002980D5F8901021F48031C5F89010C5F890005C
S31508002990C00711D0FFF790FE804641F2883907E05C
S315080029A0FFF78AFEA0EB0801494501D903260BE08B
S315080029B0D5F890008007F3D5D5F89000216C20F45F
S315080029C040700843C5F890001FB1A86D20F08050EC
S315080029D0A8652078C00707D0D5F88800616820F078
S315080029E003000843C5F888002078800707D5D5F87E
S315080029F08800A16820F00C000843C5F888002078F4
S31508002A00400707D5D5F88800E16820F0300008436C
S31508002A10C5F888002078000707D5D5F88800216909
S31508002A2020F0C0000843C5F888002078800607D53E
S31508002A30D5F88800616920F440600843C5F8880025
S31508002A402078400607D5D5F88800A16920F44050BB
S31508002A500843C5F888002078000607D5D5F8880009
S31508002A60E16920F440400843C5F888002088C0057D
S31508002A7007D5D5F88800216A20F440300843C5F800
S31508002A8088002088800507D5D5F88800616A20F473
S31508002A9040200843C5F88800208840050FD5D5F89A
S31508002AA08800A16A20F440100843C5F88800A06A87
S31508002AB0B0F5801F03D1E86840F48010E8602088EC
S31508002AC000050FD5D5F88800E16A20F440000843D0
S31508002AD0C5F88800E06AB0F5800F03D1E86840F4CD
S31508002AE08010E8602088C0040FD5D5F88800216BCF
S31508002AF020F040700843C5F88800206BB0F1807F4D
S31508002B0003D1E86840F48010E86020884FF000613F
S31508002B1080040ED5D5F88800626B20F0406010431B
S31508002B20C5F88800606B884203D1E86840F48010D5
S31508002B30E860208840040ED5D5F88800A26B20F0FE
S31508002B4040601043C5F88800A06B884203D1E86846
S31508002B5040F48010E860208800040FD5D5F8880076
S31508002B60E16B20F040500843C5F88800E06BB0F1EF
S31508002B70805F03D1E86840F48030E8603046BDE8FD
S31508002B80F883000000100240007000402DE9F0476D
S31508002B900E4605004FF0000725D0DFF89C81D8F8CF
S31508002BA0000000F00F00B0420CD2D8F8001021F057
S31508002BB00F013143C8F80010D8F8000000F00F00E4
S31508002BC0B04210D129685D4CC80741F2883A52D004
S31508002BD06868DFF86C91032808D00228206826D098
S31508002BE04005002825DB0120BDE8F0872068800124
S31508002BF0F9D5E068E068534BC0F30310401CB3FBFB
S31508002C00F0F0E268C2F306225043E268C2F341627A
S31508002C10521C5200B0FBF2F0484515D9A06810F0D6
S31508002C20F00F0AD088070FD5A86830B10CE08003EA
S31508002C30D7E700F0D3F8484506D9A06820F0F00099
S31508002C4040F08000A0608027A068696820F0030033
S31508002C500843A060FFF730FD814605E0FFF72CFD2D
S31508002C60A0EB090151453AD8A068696800F00C0044
S31508002C70B0EB810FF2D12868810714D5400703D538
S31508002C80A06840F4E060A0602878000705D5A06831
S31508002C9020F4605040F4E060A060A068A96820F0C5
S31508002CA0F000084304E0802F03D1A06820F0F0006C
S31508002CB0A060D8F80010404601F00F01B14216D9BD
S31508002CC0016821F00F0131430160FFF7F5FC074663
S31508002CD007E000BFFFF7F0FCC11B514501D90320EF
S31508002CE082E7D8F8000000F00F00B042F2D1287849
S31508002CF0400705D5A068E96820F4E0600843A060AD
S31508002D002878000706D5A068296920F4605040EAAB
S31508002D10C100A06000F062F8A1680B4AC1F3031174
S31508002D20515C01F01F01C84008490860084800685E
S31508002D30BDE8F047FFF7DEBC002002400010024065
S31508002D4000B4C4040024F400F87F0008180000202A
S31508002D501C0000200F2202600C4A936803F003034C
S31508002D604360936803F0F0038360936803F4E063B9
S31508002D70C36092684FF4E06303EAD2020261044832
S31508002D80006800F00F00086070470000001002405D
S31508002D90002002400548064900688968054AC1F3CB
S31508002DA00221515C01F01F01C8407047180000203D
S31508002DB0001002400880000805480649006889682E
S31508002DC0054AC1F3C221515C01F01F01C840704792
S31508002DD0180000200010024008800008134988687F
S31508002DE0C0F381021248012A0AD08A68C2F3810216
S31508002DF0022A05D08A68C2F38102032A01D000207C
S31508002E007047CA6802F00303CA68C2F30312521C69
S31508002E10B0FBF2F0CA68C968C2F306225043C1F390
S31508002E204161491C4900B0FBF1F0704700100240AF
S31508002E300024F4002DE9F84304007AD02078F84DF0
S31508002E40C00747D0A868E96800F00C0001F0030144
S31508002E500C2802D0082817D001E0032914D060688E
S31508002E60B0F5803F17D0B0F5A02F286817D020F40A
S31508002E7080302860286820F4802028606068E0B1E7
S31508002E80FFF71AFC064614E02868800322D5606816
S31508002E900028D2D01EE0286840F48030EDE740F4E0
S31508002EA080202860F7E700BFFFF706FC801B642830
S31508002EB070D828688003F7D50CE0FFF7FDFB0646B7
S31508002EC005E000BFFFF7F8FB801B6428F0D82868E8
S31508002ED08003F7D4207880074CD5A868E96800F005
S31508002EE00C0001F003010C2802D004280DD001E0E3
S31508002EF002290AD0E068002828682BD040F48070A0
S31508002F002860FFF7D9FB064619E02868400502D570
S31508002F10E068002891D06868217C20F0FE4040EAED
S31508002F2001606860BF480068FFF7E4FB002800D12D
S31508002F3020E072E1FFF7C0FB801B0228B8D828689A
S31508002F404005F7D56868217C20F0FE4040EA01601C
S31508002F5068600FE020F480702860FFF7ADFB064636
S31508002F6005E000BFFFF7A8FB801B0228A0D8286849
S31508002F704005F7D42078000729D560690028D5F8D8
S31508002F80940013D040F00100C5F89400FFF794FBB5
S31508002F90064606E090E000BFFFF78EFB801B02287E
S31508002FA086D8D5F894008007F6D510E020F0010001
S31508002FB0C5F89400FFF780FB064604E0FFF77CFBA4
S31508002FC0801B022878D8D5F894008007F6D4207894
S31508002FD0400761D5A86D0026C00008D4A86D40F04A
S31508002FE08050A865A86D012600F0805000908E4894
S31508002FF00168C90511D40168804641F480710160F1
S31508003000FFF75AFB074604E0FFF756FBC01B0228EA
S3150800301052D8D8F80000C005F6D5A068012815D002
S315080030200528D5F8900016D020F00100C5F89000C4
S31508003030D5F8900020F00400C5F89000A06841F289
S315080030408838B8B1FFF738FB07460EE0D5F8900088
S3150800305040F00100F0E740F00400C5F89000F5E7FD
S31508003060FFF72AFBC11B414526D8D5F890008007F3
S31508003070F6D50CE0FFF720FB074604E0FFF71CFB3C
S31508003080C11B414518D8D5F890008007F6D41EB163
S31508003090A86D20F08050A8652078800629D5A069FB
S315080030A00028D5F8980013D040F00100C5F898001C
S315080030B0FFF702FB064606E075E000BFFFF7FCFADD
S315080030C0801B02286FD8D5F898008007F6D510E03F
S315080030D020F00100C5F89800FFF7EEFA064604E06E
S315080030E0FFF7EAFA801B02285DD8D5F89800800712
S315080030F0F6D4E069F0B3A968C1F3810103295DD06C
S315080031000228286820F08070286003D0FFF7D4FAD8
S3150800311004464BE0FFF7D0FA064604E0FFF7CCFA80
S31508003120801B02283FD828688001F7D4F4E90801F3
S315080031306FF00F0202EB01110843218A5204490875
S3150800314002EB4151A26841EA02210843217D4FF072
S315080031507E42490802EB41610843217B40EAC1608F
S31508003160E968324A11400843E860286840F08070F0
S31508003170286000E05EE0E86840F08070E860FFF7ED
S315080031809BFA044605E000BFFFF796FA001B0228E3
S3150800319009D828688001F7D54CE000BFFFF78CFAFC
S315080031A0001B022802D90320BDE8F883286880019D
S315080031B0F4D4E8681E490840E8603BE00128F3D0EB
S315080031C0E868226A00F00301914226D1616A00F09C
S315080031D0F0020901103991421FD1A26A00F4FE419A
S315080031E0B1EB022F19D194F82C2000F07841B1EBFD
S315080031F0C26F12D1218E00F4C00249084905A1F513
S315080032000011914209D194F8341000F0C0604908C1
S315080032104906A1F1007181420CD00120C4E70000E3
S31508003220001002401C000020007000400C809F0126
S31508003230FCFFEEFE0020B7E770B5040009D0606A0F
S31508003240002540B125616561A56294F85D0040B12D
S315080032500CE0012070BD6068B0F5827FF4D0E561AE
S31508003260F2E784F85C50204600F05CF8022084F807
S315080032705D002068016821F040010160E1684FF4B3
S31508003280E062914201D9002001E04FF48050B1F587
S31508003290706F02D0914200D0A562A188228901F4FC
S315080032A0827102F404421143227C02F002021143A5
S315080032B0227D02F001021143228B02F400721143AF
S315080032C0227F02F03802114394F8202002F080028F
S315080032D01143228D02F40052114322681160A1693C
S315080032E0042202EA114194F8242000F4805002F0E6
S315080032F01002114394F8342002F008021143A289FF
S3150800330002F4706211430143206841602068C16974
S3150800331021F40061C1612566012084F85D00002062
S3150800332070BD000010B586B0044614216846FDF746
S315080033301BF81249206888421ED11148016E41F4D3
S3150800334080510166016E01F480510591C16C41F00E
S315080033500101C164C06C694600F001000590E020D7
S31508003360009002200190002002900390052004900E
S315080033704FF09040FFF76EF806B010BD00300140E0
S31508003380001002402DE9FF5F1D46934604464FF0A4
S3150800339001090E9EFFF790F9074694F85D006168EB
S315080033A0012806D0B1F5827F39D1A168B1BB0428BE
S315080033B035D1019800287CD0BBF1000FFBD0002D39
S315080033C0F9D094F85C00012829D04FF0010A84F856
S315080033D05CA094F85D00042802D0052084F85D00FE
S315080033E04FF00008C4F86080C4F840B0A4F846500E
S315080033F0A4F844500199A163E587A587C4F84C80D1
S31508003400C4F85080E0684FF4E061884201D8012D85
S3150800341009D92068426822F4805208E0FFE70220B2
S3150800342004B0BDE8F09F2068426842F480524260CA
S3150800343020680268520603D4026842F0400202601D
S31508003440E0688842606846D908B1012D3BD1A06B77
S3150800345001882068C160A06B801CA063E08F401EB5
S31508003460E08730E02068816889070FD5E18F69B168
S31508003470B9F1010F0AD1A16B0988C160A06B801C44
S31508003480A063E08F401EE0874FF00009206881683E
S31508003490C90711D0B4F8461071B1C068216C08800C
S315080034A0206C801C2064B4F84600401EA4F8460030
S315080034B000E09EE04FF00109FFF7FEF8C01BB0429E
S315080034C001D3701C74D1E08F0028CBD1B4F8460024
S315080034D00028C7D175E008B1012D6BD1E08F01280E
S315080034E0A06B08D921680088C860A06B801CA063FF
S315080034F0E08F801E07E0216800780873A06B401CE7
S31508003500A063E08F401EE08754E020688168890741
S315080035101AD5E18FC1B1B9F1010F15D1E18F012992
S31508003520A16B07D90988C160A06B801CA063E08FD6
S31508003530801E06E009780173A06B401CA063E08F2B
S31508003540401EE0874FF0000920688168C90728D027
S31508003550B4F8461029B3B4F84610012914D9C0683E
S31508003560216C0880206C801C2064B4F84600801EFC
S31508003570A4F84600B4F84600012810D82068416827
S3150800358041F4805141600AE0007B216C0870206C90
S31508003590401C2064B4F84600401EA4F846004FF0CC
S315080035A00109FFF789F8C01BB04202D3701C01D08D
S315080035B012E08EB1E08F0028A7D1B4F846000028A3
S315080035C0A3D13A463146204601F040FB50B12020AF
S315080035D0206684F85C800CE084F85DA084F85C8042
S315080035E003201DE784F85DA084F85C80206E00281F
S315080035F0F7D0012014E770477047704730B590F848
S315080036003C20012A42D0012280F83C20CA688B68F7
S3150800361022F440721A434B6822F480621A430B68FC
S3150800362022F400621A430B6922F480521A434B694A
S3150800363022F400521A430B6B22F480421A430B8B76
S3150800364022F4702242EA0342CB6922F080521A43DE
S315080036500F4D03680024AB4202D00E4DAB4210D189
S315080036600D8D22F4700242EA05520D6A22F080722C
S315080036702A434D6A22F000722A43C96A22F0005290
S315080036800A435A6480F83C40002030BD022030BD11
S31508003690002C014000340140704770477047000015
S315080036A0F0B590F83C20012A3AD0012580F83C5024
S315080036B0022280F83D2003685A689C68194E1A4F02
S315080036C0B34201D0BB4204D122F4700C4A6842EAE4
S315080036D00C02DFF858C002EA0C02D1F800C04CEA26
S315080036E0020CC3F804C00268B2420DD0B2F1804F92
S315080036F00AD00F4B9A4207D00E4B9A4204D0BA42D0
S3150800370002D00D4B9A4204D1896824F080031943EC
S31508003710916080F83D50002180F83C100846F0BDC5
S315080037200220F0BD002C0140003401408FFFFFFD50
S3150800373000040040000800400040014010B504465F
S31508003740022249B104290ED0082913D094F847005B
S31508003750012816D0012010BD94F844000128F9D19B
S3150800376084F844200FE094F845000128F2D184F843
S31508003770452008E094F846000128EBD184F8462055
S3150800378001E084F847200422206801F066FD2068DD
S31508003790416C41F4004141641049206888420ED0CA
S315080037A0B0F1804F0BD00E49884208D00D498842A7
S315080037B005D00D49884202D00C49884207D1816854
S315080037C00B4A1140062906D0B1F5803F03D001689F
S315080037D041F001010160002010BD0000002C0140ED
S315080037E00004004000080040003401400040014049
S315080037F007000100704710B5040003D094F83D0097
S3150800380010B107E0012010BD002084F83C002046D6
S3150800381000F022F8022084F83D00211D206801F0FE
S31508003820B1FC012084F8480084F83E0084F83F0083
S3150800383084F8400084F8410084F8420084F8430084
S3150800384084F8440084F8450084F8460084F8470064
S3150800385084F83D00002010BD38B5054600681D4AAD
S315080038601D49904211D1086E40F400600866086E42
S31508003870002200F40060009005211920FEF7AAFF37
S31508003880BDE838401920FEF797BF144A904220D168
S31508003890886D40F002008865886D124C00F00200C1
S315080038A000900F4820603D2060601020A060002036
S315080038B08021C4E90301490061618900C4E9061051
S315080038C020622046FEF70EFD08B1FDF715FC6C6276
S315080038D0A56238BD002C01400010024000040040DB
S315080038E058000240C004002090F83D10012901D07C
S315080038F001207047022180F83D100168CA6842F02D
S315080039000102CA600068104988420ED0B0F1804FA3
S315080039100BD00E49884208D00D49884205D00D497A
S31508003920884202D00C49884207D181680B4A114067
S31508003930062906D0B1F5803F03D0016841F00101A0
S315080039400160002070470000002C01400004004080
S315080039500008004000340140004001400700010013
S3150800396070B5044690F83C000025012814D00126BD
S3150800397084F83C60022084F83D0022689068364B43
S31508003980184020F47F409060086870282ED010DC1C
S3150800399010F00F0F03D021E04FF0020070BD4FEA80
S315080039A02012072A1AD2DFE802F0525252524A3837
S315080039B040002A4BC21A984249D009DCB0F5805F0C
S315080039C00DD0B0F5005F1CD0B0F1101F06D13EE057
S315080039D0102A3CD0202A3AD0502A38D0012584F81B
S315080039E03D60002084F83C00284670BDCB68D1E9CC
S315080039F00121206801F03EFC2068816841F07701CA
S31508003A0009E0CB68D1E90121206801F033FC206880
S31508003A10816841F480418160E1E7CA6849682068A5
S31508003A2001F0D2FD5021206806E0CA68496820687E
S31508003A3001F0DBFD6021206801F026FCCFE7CA68AB
S31508003A404968206801F0C0FD40212068F4E7226833
S31508003A5001461046F0E7000088FFCEFF2000100060
S31508003A6070472DE9F04104460068C66805694FF0BD
S31508003A700007A90713D5B10711D5F91E0161012061
S31508003A802077206880698007204602D0FFF7E8FF84
S31508003A9004E000F019F9204600F0DBF927776807FB
S31508003AA016D5700714D521686FF004000861022046
S31508003AB020772068806910F4407F204602D0FFF7FF
S31508003AC0CFFF04E000F000F9204600F0C2F927779E
S31508003AD0280715D5300713D521686FF00800086147
S31508003AE0042020772068C0698007204602D0FFF7A7
S31508003AF0B7FF04E000F0E8F8204600F0AAF92777B7
S31508003B00E80616D5F00614D521686FF0100008618E
S31508003B10082020772068C06910F4407F204602D02C
S31508003B20FFF79EFF04E000F0CFF8204600F091F979
S31508003B302777E80708D0F00706D021686FF001005C
S31508003B400861204600F004FA280601D4A80408D51E
S31508003B50300606D521686FF4025008612046FFF743
S31508003B604BFDE80508D5300606D521686FF4807048
S31508003B7008612046FFF73FFD680608D5700606D59A
S31508003B8021686FF040000861204600F0EBF9A806AE
S31508003B9008D5B00606D521686FF0200008612046D2
S31508003BA0FFF72BFDE80208D5F00206D521686FF469
S31508003BB0801008612046FFF770FDA80208D5B002FC
S31508003BC006D521686FF4001008612046FFF764FDEA
S31508003BD0680208D5700206D521686FF4800008616E
S31508003BE02046FFF75BFD28020AD5300208D5216872
S31508003BF06FF4000008612046BDE8F041FFF7FABD02
S31508003C00BDE8F081F0B587B0044614216846FCF794
S31508003C10ABFB284A2168002427480225914232D165
S31508003C20C16C41F00201C164C16C01F00201059149
S31508003C30C16C41F00101C164C06C062600F00100A8
S31508003C4005904FF4C0400090CDE901541B4FCDE9D3
S31508003C50034669463846FEF7FDFBA8030090CDE902
S31508003C6001540420CDE9034069463846FEF7F2FBC5
S31508003C704FF4E0600090CDE90154CDE9034669466A
S31508003C804FF0904012E00E4A914211D1C16C41F0BA
S31508003C900401C164C06C694600F004000590402028
S31508003CA00090CDE901540748CDE90345FEF7D2FB5C
S31508003CB007B0F0BD002C0140001002400004004887
S31508003CC00004004000080048704770B5044690F8A4
S31508003CD03C0000260D4601280BD0012084F83C0044
S31508003CE00C2A4AD007DC82B1042A20D0082A06D139
S31508003CF031E0022070BD102A53D0142A63D0012661
S31508003D00002084F83C00304670BD206801F0C6FAF1
S31508003D102068816941F0080181612068816921F084
S31508003D2004018161206881692A69114311E02068CC
S31508003D3001F002FB2068816941F400618161206815
S31508003D40816921F480618161206881692A6941EA73
S31508003D5002218161D4E7206801F036FB2068C16939
S31508003D6041F00801C1612068C16921F00401C161FF
S31508003D702068C1692A69114311E0206801F06CFBCB
S31508003D802068C16941F40061C1612068C16921F4F4
S31508003D908061C1612068C1692A6941EA0221C1615D
S31508003DA0AEE7206801F0A0FB2068016D41F008012C
S31508003DB001652068016D21F0040101652068016D27
S31508003DC02A69114311E0206801F0C6FB2068016DDD
S31508003DD041F4006101652068016D21F48061016587
S31508003DE02068016D2A6941EA0221016588E710B554
S31508003DF0040003D094F83D0010B107E0012010BD7F
S31508003E00002084F83C00204600F022F8022084F8BE
S31508003E103D00211D206801F0B5F9012084F848000D
S31508003E2084F83E0084F83F0084F8400084F8410096
S31508003E3084F8420084F8430084F8440084F8450076
S31508003E4084F8460084F8470084F83D00002010BD39
S31508003E507047704730B50446022269B1042912D06A
S31508003E60082917D00C291CD0102921D094F8430012
S31508003E70012824D0012030BD94F83E000128F9D14C
S31508003E8084F83E201DE094F83F000128F2D184F81A
S31508003E903F2016E094F840000128EBD184F8402032
S31508003EA00FE094F841000128E4D184F8412008E0A5
S31508003EB094F842000128DDD184F8422001E084F814
S31508003EC043200122206801F0BBF9194B20681949E3
S31508003ED0194A984209D0884207D0904205D0174D12
S31508003EE0A84202D0164DA84203D1456C45F40045B8
S31508003EF04564206898420CD0B0F1804F09D0114B28
S31508003F00984206D0104B984203D0884201D090427E
S31508003F1007D181680D4A1140062906D0B1F5803FC0
S31508003F2003D0016841F001010160002030BD0000A6
S31508003F30002C01400034014000400140004401408B
S31508003F400048014000040040000800400700010046
S31508003F5000680349884201D1FEF7B4BB70470000E8
S31508003F6000140040704790F88410012918D00121E8
S31508003F7080F884102421C0F8881001680A680B6844
S31508003F8023F001030B6022F0005100224266036809
S31508003F9019602021C0F8881080F8842010467047E0
S31508003FA00220704710B50446D0F88C00202801D0AE
S31508003FB0022010BD61B15AB10120E06600202067D9
S31508003FC0204601F027FE0028F3D1E16E012901D031
S31508003FD0012010BD226810211162226852E8001FD4
S31508003FE041F0100142E80013002BF6D110BD000085
S31508003FF070B50C46054600680B49884212D1802CDC
S3150800400005D803F075FC21460848FCF7ADF980226F
S3150800401006492846FFF7C6FF05480068016821F0EB
S315080040200401016070BD000000480040645700208C
S3150800403014060020704770B5044690F884000128DD
S315080040401DD0012084F884002420C4F88800206844
S315080040500568026822F0010202602068826822F080
S3150800406060620A438260204601F0D2FA2068056041
S315080040702020C4F88800002084F8840070BD02203F
S3150800408070BD70B5044690F8840001281DD0012043
S3150800409084F884002420C4F888002068056802682B
S315080040A022F0010202602068826822F060420A4318
S315080040B08260204601F0ACFA206805602020C4F82A
S315080040C08800002084F8840070BD022070BD704707
S315080040D0704770472DE9F04103680446D8691968A6
S315080040E09A6840F60F0528424FF000054FF0020681
S315080040F00AD187067ED501F0200702F0805C57EAD0
S315080041000C0777D0616F42E1B64FDFF8DCC2174083
S3150800411001EA0C0C57EA0C0C6CD05FEAC07C0CD098
S315080041205FEAC15C09D54FF0010CC3F820C0D4F88A
S31508004130903043F00103C4F89030830709D5D307BC
S3150800414007D023681E62D4F8903043F00403C4F8FD
S31508004150903043070AD5D30708D02668042333626C
S31508004160D4F8903043F00203C4F8903003070CD516
S3150800417001F020033B4308D0266808233362D4F8AD
S31508004180903043F00803C4F8903003050BD54B0173
S3150800419009D526684FF400633362D4F8903043F0AB
S315080041A02003C4F89030D4F89030002B3DD0800618
S315080041B009D501F0200002F08051084303D0616F51
S315080041C009B120468847D4F89000216889684906CD
S315080041D002D410F0280F2AD0204601F09FFB206851
S315080041E0806840061ED52068083050E8001F21F078
S315080041F0400100E021E040E80012002AF3D1D4F89B
S31508004200800078B179498163D4F88000FDF7D1FF41
S3150800421000280AD0D4F88000816B00E02046BDE86B
S31508004220F04108472046FFF754FFBDE8F0812046D5
S31508004230FFF74FFFC4F89050F7E7D4F86CC0202773
S31508004240BCF1010F7ED15FEAC06C7BD55FEAC16C19
S3150800425078D51020186220688068400651D5D4F8B1
S3150800426080100A6850680004000C3ED0B4F85C3030
S3150800427083423AD9A4F85E000868006880062CD400
S31508004280216851E8000F20F4807041E80002002AF6
S31508004290F6D12068083050E8001F21F0010140E8F7
S315080042A00012002AF5D12068083050E8001F21F0D6
S315080042B0400140E80012002AF5D1C4F88C70E56682
S315080042C0216851E8000F20F0100041E80002002A9A
S315080042D0F6D1D4F88000FDF737FF2667B4F85C00FE
S315080042E0B4F85E10401A81B207E0B4F85C10814257
S315080042F09BD11068800698D526672046FFF778FE7A
S3150800430093E7B4F85C00B4F85E10401A81B2B4F8CA
S315080043105E00002889D0002987D0226852E8000F5D
S3150800432020F4907042E80003002BF6D12D4BDB43B6
S315080043302068083050E8002F1A4040E8002CBCF1ED
S31508004340000F00E00EE0F3D1C4F88C70E5666567EF
S31508004350206850E8002F22F0100240E80023002BC6
S31508004360F6D1C9E7C60209D5560207D54FF480101B
S3150800437018622046BDE8F041FFF7AABE03060AD533
S3150800438001F0800302F40002134304D0A16F002950
S315080043907FF444AF49E7420611D54A060FD52046B1
S315080043A0016851E8002F22F0400241E80023002B63
S315080043B0F6D1C0F88870856700F014F935E702026F
S315080043C006D54A0004D52046BDE8F041FFF77FBE72
S315080043D0C00195D5002993DA2046BDE8F041FFF7DC
S315080043E029BE00000100001020010004C95700087A
S315080043F010B5040003D0D4F8880010B107E00120F6
S3150800440010BD002084F88400204600F027F82420F8
S31508004410C4F888002068016821F001010160A06ADB
S3150800442010B1204601F016F9204601F0B9FA012824
S31508004430E6D02068416821F490414160206881688F
S3150800444021F02A0181602068016841F001010160BC
S315080044502046BDE8104001F061B90000F0B597B0FC
S315080044600646142111A8FBF77FFF44216846FBF78F
S315080044707BFF3249306888425DD1042000240090D1
S3150800448003946846FEF73EFA08B1FCF735FE2C4859
S31508004490816D41F480218165816D01F48021169139
S315080044A0C16C41F00201C164C06C11A900F00200A0
S315080044B016904FF4406011900220CDE912040720AF
S315080044C0CDE914401F48FDF7C5FF204D1E4805F1EC
S315080044D0080128601D2068601020802781E8910067
S315080044E06C61AC61EC6128462C62FDF7FBFE08B1F5
S315080044F0FCF702FEF567AE62144D134860351430BA
S3150800450028601C20C5E90104C5E903476C61AC6154
S31508004510EC6128462C62FDF7E5FE08B1FCF7ECFDD8
S31508004520C6F88050002205212720AE62FEF752F910
S315080045302720FEF741F917B0F0BD000000480040FB
S31508004540001002400004004808000240B40500209C
S315080045507047704770B50446D0F88800202801D007
S31508004560022070BD39B332B32165A4F85420A4F8EB
S3150800457056200021C4F890102120C4F88800E06F66
S31508004580D8B1154BC362E36F14481863E36F144838
S315080045905863E06F134681632068E56F00F12802CF
S315080045A02846216DFDF7FEFE38B11020C4F89000AC
S315080045B02020C4F88800012070BD216840200862C8
S315080045C02068083050E8001F41F0800140E80012DA
S315080045D0002AF5D1002070BDCF58000811590008EF
S315080045E0D957000870477047FEE700EB8100006E58
S315080045F000F0F840704700EB8100006E00F0F840CC
S3150800460070478068C0F3C00070478068C0F3C00078
S3150800461070478068C0F3800070478068C0F38000E8
S315080046207047C06810F4406F01D000207047012021
S315080046307047042303EAD15310B518444369C1F3FC
S31508004640045107248C40A3438A401343436110BD99
S31508004650042303EAD15310B518444369C1F304513E
S3150800466007248C40A3438A401343436110BD00EBE3
S315080046708100016E21F0004111430166704700EB8D
S315080046808100016E21F00041114301667047000068
S3150800469070B59AB000241794189420210FA819947D
S315080046A0FBF762FE3C216846FBF75EFE37484FF093
S315080046B0A041042501604FF44031C0E90114856129
S315080046C00121C460C0E9044104774177016280F89A
S315080046D02440C462046380F83810C46380F84040FC
S315080046E0FDF71EFB08B1FCF707FD17A92748179425
S315080046F0FDF794F808B1FCF7FFFC25480F90062053
S31508004700109007207F26CDE91106CDE913540FA98D
S315080047101E48FDF7EFF808B1FCF7EEFC1D480090BF
S3150800472001A9092081E85100CDE904540320089025
S3150800473080208DF824408DF825400A900B908DF83E
S3150800474026408DF8304069461048FCF747FD08B109
S31508004750FCF7D2FC1048009040F20F100190694611
S315080047600A48FCF73BFD08B1FCF7C6FC0B4800906D
S3150800477040F21520019069460448FCF72FFD0028F1
S3150800478001D0FCF7B9FC1AB070BD0000E0010020AA
S315080047901000C01002003004040060080800900CE5
S315080047A030B589B020216846FBF7DEFD1A4819495D
S315080047B0002401604FF44031C0E90114C4600425A7
S315080047C00461C0E90545047701214177016280F853
S315080047D02440C462046380F83810C46380F84040FB
S315080047E0FDF79EFA08B1FCF787FC0C4800900620F6
S315080047F00190072002907F200594CDE903056946BC
S315080048000548FDF777F8002801D0FCF775FC09B0D4
S3150800481030BD0000000100504C020020001060323C
S315080048201D4808B5816C41F004018164816C01F072
S3150800483004010091816C41F001018164806C0022C1
S3150800484000F00100009005210B20FDF7C3FF0B20A7
S31508004850FDF7B2FF002205210C20FDF7BBFF0C2057
S31508004860FDF7AAFF002205210D20FDF7B3FF0D2055
S31508004870FDF7A2FF002205210E20FDF7ABFF0E2053
S31508004880FDF79AFF002205210F20FDF7A3FFBDE8DB
S3150800489008400F20FDF790BF0010024010B59AB0EF
S315080048A014221C496846FBF746FD0021684602F0BB
S315080048B06FFC194C174914222060143105A8FBF720
S315080048C03AFD002105A802F063FC12496060142233
S315080048D028310AA8FBF72FFD00210AA802F058FC88
S315080048E00C49A06014223C310FA8FBF724FD0021D7
S315080048F00FA802F04DFC0749E0601422503114A8B5
S31508004900FBF719FD002114A802F042FC20611AB039
S3150800491010BD0000947F0008040000202DE9F04334
S3150800492087B014216846FBF71FFD2E48C16C41F07D
S315080049302001C164C16C01F020010591C16C41F0F0
S315080049400101C164C16C01F001010591C16C41F01E
S315080049500401C164C16C01F004010591C16C41F008
S315080049600201C164C06C4FF0904700F00200059048
S31508004970002210213846FDF799FEDFF86C800022E8
S3150800498010214046FDF792FEDFF8609000221121C3
S315080049904846FDF78BFE1026012500240096CDE932
S315080049A00154694638460394FDF754FD0096CDE94F
S315080049B00154694640460394FDF74CFD11200090CA
S315080049C0CDE90154694648460394FDF743FD0220A4
S315080049D08DE8310069464846FDF73CFD07B0BDE85D
S315080049E0F083000000100240000800480004004858
S315080049F0124810B5104901604FF4827141600021D8
S31508004A004FF47062C0E902120122C0E90412520290
S31508004A1082611822C0E9072107224162C0E90A1209
S31508004A2001634163FEF708FC002803D0BDE8104087
S31508004A30FCF762BB10BD000000300140780300207F
S31508004A4010B59CB0002419941A94179418941494C9
S31508004A5015941C210DA81694FBF786FC342168468C
S31508004A60FBF782FC37483649C0E9001460218160AB
S31508004A7040F6AC51C0E903140221C0E90514FEF75B
S31508004A80BAFE08B1FCF738FB4FF48050179017A907
S31508004A902C48FEF765FF08B1FCF72EFB2948FFF7FF
S31508004AA0A6F908B1FCF728FB2020CDE9140414A9BF
S31508004AB024481694FEF7F4FD08B1FCF71DFB702098
S31508004AC0CDE90D040F9410941194129400220DA9A7
S31508004AD01C481394FFF7F9F808B1FCF70DFB0422FC
S31508004AE00DA91848FFF7F1F808B1FCF705FB0822ED
S31508004AF00DA91448FFF7E9F808B1FCF7FDFA4FF4D9
S31508004B00006000904010CDE901041420CDE90304AB
S31508004B104FF40050CDE905040003CDE90840079499
S31508004B200A940B94694607480C94FEF767FD08B18A
S31508004B30FCF7E2FA0348FFF765F81CB010BD000061
S31508004B40002C01402804002010B58EB000240794DC
S31508004B50089409940A940B940C941C2168460D94A5
S31508004B60FBF702FC1D481C49C0E90014D221C0E924
S31508004B70024104618461FEF73EFE08B1FCF7BCFA07
S31508004B804FF48050079007A91448FEF7E9FE08B1CC
S31508004B90FCF7B2FA1148FFF72AF908B1FCF7ACFAA4
S31508004BA00B940BA90D480D94FEF77AFD08B1FCF796
S31508004BB0A3FA6020CDE9000402940022694607485A
S31508004BC00494FFF782F808B1FCF796FA0348FFF752
S31508004BD019F80EB010BD000000040040740400204F
S31508004BE0174810B5154901601649416000218160D2
S31508004BF00C22C160C0E904128161C161016241628F
S31508004C008162FFF7F5FB08B1FCF776FA00210C483C
S31508004C10FFF737FA08B1FCF76FFA00210848FFF7E3
S31508004C200AFA08B1FCF768FA0548FFF79CF9002864
S31508004C3003D0BDE81040FCF75FBA10BD004800403D
S31508004C402005002080841E00FEE7FEE7F8B515461D
S31508004C500E460B460092044600224FF4C05100F05F
S31508004C6019F888B93346002280212046009500F0BD
S31508004C7081F848B9334600224FF4C06120460095B2
S31508004C8000F008F8002804D0206E40F020002066C6
S31508004C900320F8BD2DE9FE4F4FF0000A9846174647
S31508004CA00E4604460C9D8DF804A0FDF705FD411B34
S31508004CB0A8EB0105FDF700FD814620684FF4C06B9F
S31508004CC00C3002902A480068C0EBC00000EB800058
S31508004CD0000D6843009043E05E4506D12FB902985F
S31508004CE000788DF804009DF80400B8F1FF3F37D02E
S31508004CF0FDF7E2FCA0EB0900A84203D215B1009823
S31508004D0058B32BE02068416821F0E00141606068F3
S31508004D10B0F5827F0BD1A068B0F5004F02D0B0F590
S31508004D20806F04D12068016821F040010160A06A03
S31508004D30B0F5005F09D12068016821F400510160CF
S31508004D402068016841F400510160012084F85D0083
S31508004D5084F85CA00320BDE8FE8F0025401E009065
S31508004D60206880683040B842B6D10020F3E70000DA
S31508004D70180000202DE9F8431E4691468846044649
S31508004D80089DFDF799FC401B351AFDF795FC07466B
S31508004D9025480068C0F3CB30684338E0701C37D02C
S31508004DA0FDF78AFCC01BA84203D215B1009860B370
S31508004DB02CE02068416821F0E00141606068B0F5A8
S31508004DC0827F0BD1A068B0F5004F02D0B0F5806F96
S31508004DD004D12068016821F040010160A06AB0F59D
S31508004DE0005F09D12068016821F40051016020683C
S31508004DF0016841F400510160012084F85D0000203B
S31508004E0084F85C000320BDE8F8830025401E009066
S31508004E102068816838EA010004D000214945BDD1DF
S31508004E200020F0E70121F9E7180000209FED663A17
S31508004E30F0EE402A40EEC32A60EE834A9FED631ADD
S31508004E40B0EE402AF0EE401A20EE814AB1EE401A42
S31508004E5000EE832A00EEC31A50EE831AF5EEC00A56
S31508004E60B7EE003AF6EE003AF1EE10FA30DB9FEDB7
S31508004E70585AB5EEC00A60EE850AF1EE10FA13DB51
S31508004E80F4EEC04AF1EE10FA55DC33EE620A30EE63
S31508004E90600A20EE230A80ED000A30EE220A81ED30
S31508004EA0000A30EE200A54E0B4EEC04AF1EE10FAD9
S31508004EB041DD33EE600A30EE410A20EE230A81ED29
S31508004EC0000A30EE200A82ED000A30EE010A2FE0D1
S31508004ED09FED405AB5EEC00A60EE850AF1EE10FA6B
S31508004EE013DBB4EEC04AF1EE10FA35DC33EE600A95
S31508004EF030EE420A20EE230A80ED000A30EE020A5E
S31508004F0082ED000A30EE200A34E0F4EEC04AF1EEF3
S31508004F1010FA21DD33EE610A30EE600A20EE230A2C
S31508004F2082ED000A30EE200A81ED000A30EE210AF1
S31508004F3080ED000A20E033EE420A30EE610A20EEE8
S31508004F40230A81ED000A30EE210A80ED000A30EED0
S31508004F50020A82ED000A0FE033EE410A30EE620AD9
S31508004F6020EE230A82ED000A30EE010A80ED000ADF
S31508004F7030EE220A81ED000A90ED000AB5EEC00A6D
S31508004F80F1EE10FA1DDB10EE100A4FF07E53984230
S31508004F9017DC91ED000AB5EEC00AF1EE10FA10DB47
S31508004FA010EE100A98420CDC92ED000AB5EEC00A23
S31508004FB0F1EE10FA05DB10EE100A984201DC00202B
S31508004FC070474FF0FF3070473ACD133F3ACD13BFC5
S31508004FD03ACD933F3ACD93BF012002F0CDF8FBE7D7
S31508004FE0054C4FF4FA7510212046FDF757FB284665
S31508004FF002F0C2F8F7E7000000040048012002F0BA
S31508005000BBF8FBE710B5502080F31188BFF34F8F2C
S31508005010BFF36F8F02F0F6FE18B104494FF08050C7
S315080050200860002080F3118810BD000004ED00E040
S3150800503010B594B038216846FBF796F914210EA8E6
S31508005040FBF792F90020FDF7F7FB01210804CDE9EB
S3150800505000100324CDE9084102201521CDE90A10E4
S3150800506007900C900D906846FDF7E4FE08B172B6FD
S31508005070FEE70F20CDE90E04002010901190129043
S3150800508004210EA8FDF782FD002801D072B6FEE7BE
S3150800509014B010BD0248016841F470010160704700
S315080050A088ED00E03EB52F496FF0010008602D48F5
S315080050B010380068C0F300112B4802784A4092F075
S315080050C0010F0CD0012002F061FB264940F2D660A0
S315080050D02C310860091F0860091F08603EBD017071
S315080050E04FF4807449B10021491CC9B20329FBD386
S315080050F0684601F01FFF00B322E001F0E3FC6846B2
S3150800510001F018FF10B9204601F070FC154834303C
S315080051100068000407D49FED150A8DED020A8DED8F
S31508005120010A8DED000A684601F0ACFB01F0FEFCB1
S315080051300D480C3001F0A8FF3EBD204601F056FC94
S31508005140684601F013FC0848DFED090A0C3090EDBB
S315080051500C0A30EE201A90ED0A0ADFED060AFBF774
S31508005160CDFF3EBD102C01409000002000C0DA445F
S31508005170A69B4439000000000148FEF772BC0000F7
S31508005180DC0300202DE9F0430268264B264D274E06
S31508005190274C4FF08049984207D0484505D0A84289
S315080051A003D0B04201D0A04203D122F070074A686A
S315080051B03A43204FDFF880C0DFF8808098420DD050
S315080051C048450BD0A84209D0B04207D0A04205D026
S315080051D0B84203D0604501D0404503D122F440755A
S315080051E0CA682A434D6922F080022A4302608A6807
S315080051F0C2620A688262984207D0A04205D0B842C5
S3150800520003D0604501D0404501D1096901630121F8
S3150800521041610169C90703D0016921F001010161F2
S31508005220BDE8F083002C014000040040000800405F
S31508005230003401400040014000440140004801405C
S3150800524010B501F01F030121046A99408C430462DA
S31508005250016A9A401143016210BD10B501F00F03AF
S315080052600421046A99408C430462016A9A401143F6
S31508005270016210BD10B5846842EA032224F47F4413
S315080052800A432243826010BD8268034B1A400A43D0
S3150800529042F00701816070478FFFCFFF2DE9F04389
S315080052A0056A026A22F001020262436882691C4C9E
S315080052B025F0020522400C6822F0030214438A688E
S315080052C0194E2A43174D194FDFF864C0DFF864906A
S315080052D0A84207D0B04205D0B84203D0604501D0F5
S315080052E0484506D122F00808CA6842EA080222F0B0
S315080052F00402A84207D0B04205D0B84203D06045A0
S3150800530001D0484505D14D6923F440731D438B6987
S315080053102B4343608461496841630262BDE8F083B8
S315080053208FFFFEFF002C0140003401400040014081
S315080053300044014000480140F0B5056A026A22F0BF
S315080053401002026242688369194C1B4E23400C689E
S3150800535023F4407343EA042425F020038D6843EAC6
S315080053600513144DA84201D0B04206D1CF6823F0E8
S31508005370800343EA071323F04003A8420AD0B04249
S3150800538008D00E4DA84205D00D4DA84202D00D4DAD
S31508005390A84207D14D6922F4406242EA85028D6926
S315080053A042EA850242608461496881630362F0BD0E
S315080053B0FF8FFFFE002C01400034014000400140F1
S315080053C00044014000480140F0B5056A026A22F42B
S315080053D0807202624368C269194C1B4E22400C68EF
S315080053E022F00302144325F400728D6842EA05226E
S315080053F0144DA84201D0B04206D1CF6822F400620B
S3150800540042EA072222F48062A8420AD0B04208D0B3
S315080054100E4DA84205D00E4DA84202D00D4DA84209
S3150800542007D14D6923F4405343EA05138D6943EACE
S3150800543005134360C4614968C1630262F0BD000098
S315080054408FFFFEFF002C0140003401400040014060
S315080054500044014000480140F0B5056A026A22F49A
S31508005460805202624268C369194C1B4E23400C687D
S3150800547023F4407343EA042425F400538D6843EA71
S315080054800533144DA84201D0B04206D1CF6823F4A3
S31508005490004343EA073323F48043A8420AD0B042C4
S315080054A008D00E4DA84205D00D4DA84202D00D4D8C
S315080054B0A84207D14D6922F4404242EA85128D6915
S315080054C042EA85124260C461496801640362F0BD1C
S315080054D0FF8FFFFE002C01400034014000400140D0
S315080054E0004401400048014030B5056A026A22F4CA
S315080054F0803202624268036D114C23400C681C43DB
S3150800550025F400330D8943EA05430E4DA8420BD016
