S315080000005864002005040008F76700089561000891
S31508000010F5670008CD2B00080979000800000000E4
S315080000200000000000000000000000004503000872
S31508000030AF2C000800000000A1030008B16B0008FF
S315080000401F0400081F0400081F0400081F040008F6
S315080000501F0400081F0400081F0400081F040008E6
S315080000601F0400081F0400081F040008D12B0008FD
S31508000070DD2B0008E92B0008F52B0008012C0008E9
S315080000801F040008000000001F0400081F040008E1
S315080000901F0400081F0400081F0400081F040008A6
S315080000A01F040008516C00081F0400081F040008FC
S315080000B01F0400081F0400081F0400081F04000886
S315080000C01F0400081F0400081F0400081F04000876
S315080000D01F0400081F0400081F040008FD78000814
S315080000E01F0400081F0400081F0400081F04000856
S315080000F01F0400081F0400081F0400080000000071
S31508000100000000001F040008000000001F0400088B
S315080001101F040008000000001F040008256D0008E1
S315080001201F0400081F0400081F0400081F04000815
S315080001301F04000800000000000000001F0400085B
S315080001401F0400081F04000800000000000000004B
S315080001500000000000000000000000000000000091
S315080001600000000000000000000000001F04000856
S315080001701F04000800000000000000000000000046
S31508000180000000001F040008000000000000000036
S315080001900000000000000000000000000000000051
S315080001A000000000000000001F0400081F040008EB
S315080001B01F0400081F0400081F04000800000000B0
S315080001C0000000001F0400080000000000000000F6
S315080001D01F0400081F04000800F002F800F0A2F847
S315080001E00AA090E8000C82448344AAF10107DA4584
S315080001F001D100F097F8AFF2090EBAE80F0013F034
S31508000200010F18BFFB1A43F001031847A4A2000008
S31508000210C4A200000A4410F8014B14F00F0508BFE9
S3150800022010F8015B240908BF10F8014B6D1E05D0B4
S3150800023010F8013B6D1E01F8013BF9D1641E03D08D
S31508000240641E01F8015BFBD19142E4D370470000BC
S315080002500023002400250026103A28BF78C1FBD8C1
S31508000260520728BF30C148BF0B6070476E2900F09F
S315080002708182702900F0CB83662909F0A483652959
S3150800028009F0A183672909F09E83612909F09D83F6
S3150800029003681B0A28BF41F08001692900F02E82F5
S315080002A0642900F02B82752900F028826F2900F056
S315080002B05883782900F09783E92900F0F382E42926
S315080002C000F0F082F52900F0ED82EF2900F0558361
S315080002D0F82900F096830368DB0928BF41F08001FE
S315080002E0632901F0AB80732901F0B080E32901F09E
S315080002F0BB80F32901F0C080002070471FB509F0C4
S3150800030024FB01F061F904000020002109F06EF8D1
S31508000310401C60600020002109F052F8E0601FBD13
S3150800032010B510BD01F022F91146FFF7E7FF08F0F6
S315080003309DF801F029FA03B4FFF7F2FF03BC01F0B8
S31508000340E9FC00002C4B19680868B0E8F04F80F308
S315080003500988BFF36F8F4FF0000080F3118870474C
S315080003600000000008480068006880F308884FF01D
S31508000370000080F3148862B661B6BFF34F8FBFF3EF
S315080003806F8F00DF00BF00BF08ED00E0DFF80C004C
S31508000390016841F470010160704700BF88ED00E014
S315080003A0EFF30980BFF36F8F134B1A681EF0100F17
S315080003B008BF20ED108A20E9F04F106009B44FF00D
S315080003C0500080F31188BFF34F8FBFF36F8F08F08B
S315080003D037FE4FF0000080F3118809BC19680868D9
S315080003E0B0E8F04F1EF0100F08BFB0EC108A80F38B
S315080003F00988BFF36F8F704754000020EFF305801C
S31508000400704700000948804709480047FEE7FEE7AD
S31508000410FEE7FEE7FEE7FEE7FEE7FEE7FEE7FEE7A6
S3150800042004480549054A064B70470000416C000818
S31508000430D90100085858002058640020585C00204C
S31508000440585C002053EA020C00F069802DE9F04B55
S315080004504FF00006002B1FBFB3FA83F503FA05F425
S3150800046024FA05F65E4012BF1643B2FA82F502FA7E
S3150800047005F4C5F120051EBF22FA05FC44EA0C0462
S31508000480203556EA044C4FEA144418BF641C4FF052
S3150800049000084FF00009904271EB030C39D300298C
S315080004A019BFB1FA81F701FA07F6B0FA80F700FA30
S315080004B007F6C7F120071EBF20FA07FC46EA0C0616
S315080004C02037B6FBF4FCA7EB0507103F07F01F0B18
S315080004D0CBF120060CFA0BFB2CFA06F644BFB34602
S315080004E00026202FA4BF5E464FF0000B5BEA060CE1
S315080004F008BF4FF0010B19EB0B09ABFB027C48EB6D
S315080005000608C01B06FB02CC0BFB03CC71EB0C01E7
S31508000510C1E70B46024641464846BDE8F08B13B58F
S315080005204FF000004FF00001AFF30080BDE81C401B
S31508000530704700007CB51D4616460C00009001D099
S315080005402044401E074B7B442A46694601903046A4
S3150800055000F029F905461CB10020694600F036F975
S3150800056028467CBD8D02000010B5203AC0F00B80ED
S31508000570B1E81850203AA0E81850B1E81850A0E899
S315080005801850BFF4F5AF5FEA027C24BFB1E81850F3
S31508000590A0E8185044BF18C918C0BDE810405FEA63
S315080005A0827C24BF51F8043B40F8043B08BF7047DF
S315080005B0D20728BF31F8023B48BF11F8012B28BFE4
S315080005C020F8023B48BF00F8012B70474FF00002A5
S315080005D000B5134694469646203922BFA0E80C502B
S315080005E0A0E80C50B1F12001BFF4F7AF090728BF06
S315080005F0A0E80C5048BF0CC05DF804EB890028BF82
S3150800060040F8042B08BF704748BF20F8022B11F0AA
S31508000610804F18BF00F8012B704770477047704726
S3150800062010B500F0D1FA006810BD10B5044600F008
S31508000630CBFA046010BD70B5044685690068C1062A
S3150800064001D5302600E02026C00707D070BDD4E9C2
S31508000650012130469047206A401C20626D1EF6D55F
S3150800066070BD70B5044685690078C00707D170BDAE
S31508000670D4E9012120209047206A401C20626D1E83
S31508000680F6D570BD09684A0501D540B27047C90557
S31508000690FCD500B2704709684A0501D5C0B2704753
S315080006A0C905FCD580B2704770B50C460546012AC7
S315080006B005D02878800600D5EA69002302E00123E0
S315080006C005E05B1C934202D2E05C0028F9D1A869D8
S315080006D0E618C01AA861286A184428622846FFF74F
S315080006E0AAFF04E0D5E9012114F8010B9047B442AA
S315080006F0F8D32846FFF7B5FF70BD00002DE9F04195
S315080007000646002410687529314616A510D0FFF74D
S31508000710B9FF002802DA404213A507E031688A07C4
S3150800072001D512A502E0490704D511A5012401E067
S31508000730FFF7B1FF00210A2206F1240709E0B0FB02
S31508000740F2FCB0FBF2F302FB1C003030785418467A
S31508000750491C0028F3D123462A463046BDE8F04115
S3150800076000F07BBA000000002D0000002B000000FE
S315080007702000000011680268006A530501D5087058
S315080007800AE0D30501D5088006E0130603D5C2178B
S31508000790C1E9000200E008600120704701694A1CAF
S315080007A002610878704700B58FB0CDE901310021A4
S315080007B0059105497944CDE903101146684600F0CC
S315080007C031F90FB000BD0000E5FFFFFF0A6802F827
S315080007D0010B0A607047D1E900239A4202D2531CE2
S315080007E00B601070704700002DE9FF5F15468A46BA
S315080007F00446DFF8AC80F8440027D8E900103E46E6
S31508000800CDE9001010E03AF816106A4602A800F082
S3150800081089FE411C07D02178890603D5E269391873
S3150800082091420DD80744761C2078800602D5E069E7
S31508000830B84205DDAE42E6DB3AF816000028E2D1FA
S31508000840A069C01BA0612046FFF7F5FED8E9001095
S31508000850CDE90010002017E03AF818106A4602A8F9
S3150800086000F060FEB0F1FF3F81460BD000250DF188
S31508000870080B05E0D4E901211BF8050090476D1C1B
S315080008804D45F7D308F10100B0428046E4DB206A03
S31508000890384420622046FFF7E4FEBDE8FF9F0000CB
S315080008A0769300002DE9F0418046D21D22F007021A
S315080008B00025D2E90002F52915A614D0011E72F109
S315080008C0000106DA0023D0EB030063EB020211A64F
S315080008D008E0D8F800108B0701D50FA602E04907F3
S315080008E001D50EA601251146002408F1240704E0C7
S315080008F000F06EF930323A55641C50EA0102F7D11D
S315080009002B46324621464046BDE8F04100F0A5B9DF
S31508000910000000002D0000002B0000002000000051
S3150800092030B4002100F1240408E002F00705D208DB
S31508000930303542EA4372DB086554491C52EA03051E
S31508000940F3D10468002310A2250707D5A40600D40E
S3150800095021B1C46901230DA2641EC46130BC00F034
S315080009607CB910B5044621461068FFF794FE024686
S315080009702046BDE810400023D2E7D21D22F0070129
S31508000980D1E90023CCE70000000000003000000099
S31508000990F0B40D460188090502D5214C7C4402E0D5
S315080009A01F4C7C440E34002100F1240608E002F0B6
S315080009B00F071209E75D42EA03721B097754491CBF
S315080009C052EA0307F3D102780023120704D5702DE3
S315080009D006D009B1022311342246F0BC00F03DB915
S315080009E001231034F8E770B504460D462146106811
S315080009F0FFF751FE024629462046BDE8704000230F
S31508000A00C6E7D21D22F00703D3E90023C0E703682F
S31508000A10126843F0200303600823C3610023B7E785
S31508000A20D89100002DE9F05F894604464FF0000A88
S31508000A30DFF874B1FB44C0F820A02046E168884777
S31508000A40002874D0252806D0D4E901219047206AC9
S31508000A50401C2062F1E700265F462046E168884789
S31508000A602028054607DB312D05D2781910F8200C09
S31508000A7008B10643F1E7B00701D526F00406C4F825
S31508000A801CA00027C4F818A02A2D09D0284607F06C
S31508000A9006F938B304EB8708303DC8F8185019E052
S31508000AA059F8041B204604EB87029161E1688847E0
S31508000AB0012F054618D1E069002820DA26F020061D
S31508000AC01DE0D8F8180000EB800005EB4000303830
S31508000AD0C8F818002046E1688847054607F0DFF899
S31508000AE00028EED1012F0AD02E2D08D12046E16824
S31508000AF088477F1C0546022F46F02006C4DBA069FE
S31508000B00002803DA404246F00106A061F00701D04A
S31508000B1026F010066C2D0BD0682D09D04C2D39D037
S31508000B206A2D35D0742D35D07A2D33D016E038E0BD
S31508000B30E1682F4620468847B842054609D16C2FFA
S31508000B4026D04FF48060E16806432046884705466C
S31508000B5004E06C2F1AD04FF4807006430DB3A5F14C
S31508000B604100192802D8203546F400664A46294627
S31508000B70204626604E46FFF779FB80B101280BD048
S31508000B80F61D26F0070000F1080956E74020E4E7BD
S31508000B908020D8E70020D6E706F104094DE7284665
S31508000BA052E7206ABDE8F09F689100007CB50546CB
S31508000BB000236846CDE9003300F080FC69462846E4
S31508000BC007F05AF87CBD000000487047F857002027
S31508000BD030B5B0F10A024FEA900E71F100034EEA01
S31508000BE0817EB0EB0E0061EB91014FEA101E4EEAD2
S31508000BF0017E10EB0E0041EB11114FEA102E4EEA62
S31508000C00016E10EB0E0041EB11214FEA104E4EEA31
S31508000C10014E10EB0E0041EB1141401841F1000165
S31508000C204FEAD00040EA41704FEAD10110EB800547
S31508000C304FEA810444EA907444EB01046D1944EBCD
S31508000C400404521BA3414FF0000348BF0A3200D5E3
S31508000C5030BD401C41F1000130BD2DE9F0470D467D
S31508000C6099469246044600F124080168880604D588
S31508000C70E06921F01001216000E00120A84201DDB1
S31508000C80471B00E00027A1697A1902EB0900081A38
S31508000C90A0612078C00602D42046FFF7CCFC0026C7
S31508000CA008E0D4E901211AF806009047206A401C9A
S31508000CB0761C20624E45F4DB2078C0060AD520460D
S31508000CC0FFF7B9FC06E0D4E9012130209047206AF5
S31508000CD0401C2062381EA7F10107F4DC07E0D4E9BE
S31508000CE0012118F805009047206A401C2062281E3A
S31508000CF0A5F10105F3DC2046FFF7B3FC20780006D2
S31508000D0002D50220BDE8F0870120FBE770472DE9F0
S31508000D10FF4F0C461E464FF0FF378BB0D2E9000155
S31508000D20DDF860800A908A46C1F30A5505B93D4642
S31508000D30002108464FF00000BAF1000F00F4400009
S31508000D4005DA00EB80004FF4400101EA50004FEA53
S31508000D509059B9F1010F00DDB9460A9850EA4A00E0
S31508000D600ED044F61050A5F2FF3545432F14B8F1BE
S31508000D70000F1ED07542291E1EDDC9F100021CE0B7
S31508000D80B8F1010F4FF0000001D0302103E0F24323
S31508000D9005E02154401CB042FBDB3046002200210E
S31508000DA021540B99C1F80880C1E900200FB0BDE8AD
S31508000DB0F08FBD1B6D1CDEE74A4600DA694206A8BD
S31508000DC000F070FC06AB93E8070003AB83E8070066
S31508000DD050460A9901F0F1F98DE80700A0F5005090
S31508000DE01F3800900398002D0ADD42F21F014A467B
S31508000DF00844002303A90390684601F09DFC09E016
S31508000E00A0F500504A461F38002303A903906846F8
S31508000E1001F0BCFC8DE807000004000C03D04FF07D
S31508000E20FF30410800E01046B8F1000F03D0002259
S31508000E30009215461EE0751E05D4FFF7C9FE30322E
S31508000E4062556D1EF9D5B3460122084302D0002229
S31508000E507F1C04E02078302801D100227F1E002A5A
S31508000E60099784D01DE0112D07DAFFF7B1FE30325D
S31508000E7062556D1C50EA0102F5D1084302D000986C
S31508000E80C8B10EE00021681E05E0235C625C63546D
S31508000E902254401E491C8142F7DBAB46A81B401E64
S31508000EA00990002004F80B000B98099AC0F80880EE
S31508000EB0C0E9002B7AE711264FF0000857E72DE91D
S31508000EC0F04F88460446D21D22F0070191B0D1E9B9
S31508000ED00001CDE90A0106F018FD02460B98C00F7D
S31508000EE001D02D2007E02068810701D52B2002E0DC
S31508000EF0202101EAC000032A099001D0072A05DB50
S31508000F0003464146204600F06DFB0BE1207880063B
S31508000F1001D5E06900E00620B8F1650F814606D0E4
S31508000F20B8F1660F18D0B8F1670F70D131E000201C
S31508000F30B9F1110F009001DB112301E009F101035A
S31508000F400AAA01A90CA8FFF7E2FEDDE90C70002643
S31508000F5009F10105834647E001204B4600904FF012
S31508000F6000470AAA01A90CA8FFF7D1FEDDE90DB0D2
S31508000F700C995D46002610B909F101000D18B9EB68
S31508000F80050003D4C0F1FF3609F10105A5EB0900F8
S31508000F902BE0B9F1010F01DA4FF001090020B9F190
S31508000FA0110F0090484601DD112300E003460AAA06
S31508000FB001A90CA8FFF7ABFEDDE90C704D4600262B
S31508000FC08346207800070AD4AB4500DA5D4601A8B7
S31508000FD0012D04DD411911F8011C302907D04F45B0
S31508000FE002DA17F1040F04DA012082460FE06D1EBB
S31508000FF0EEE7002F02DCED1B3E4403E0781CA84216
S3150800100000DD7D1CB81B00F1010A4FF0004720786F
S31508001010000703D4AA4501DB4FF0FF3A0021B7F1D8
S31508001020004F0DF143088DF8431024D002202B23DE
S31508001030002F01DA7F422D230A21021EA0F10100AA
S3150800104000DC5FB197FBF1FC97FBF1F201FB1C7C1E
S3150800105017460CF1300C08F801CDEEE7A8F10100AF
S3150800106003702188090501D5452100E06521A0F115
S31508001070010800F8011C09980FA9A1EB0807FF1D34
S3150800108000B10120411901EBEA70A1693844081A38
S31508001090401EA0612078C00602D42046FFF7CBFA8E
S315080010A0099828B1D4E901219047206A401C20629A
S315080010B02078C00622D52046FFF7BDFA1EE0002E8E
S315080010C004DBB34502DD01A8805D00E03020D4E9E9
S315080010D001219047206A401C2062761CAAF1010073
S315080010E05FEA000A0AD100F06FFAC0680168405C3E
S315080010F0D4E901219047206A401C2062281EA5F1E8
S315080011000105DCDC07E0D4E9012118F8010B90475A
S31508001110206A401C2062381EA7F10107F3DC20462E
S31508001120FFF79FFA032011B041E600002DE9F04FC2
S3150800113004460D46D21D22F0070089B0D0E9009773
S315080011404846394606F0E1FB0246F80F01D02D2342
S3150800115007E02068810701D52B2302E0202101EA58
S31508001160C0038DF820300BB1012000E00020032ACF
S31508001170824601D0072A04DB2946204600F032FAC7
S315080011803FE12078800601D40D2500E0E569C7F324
S315080011900A560D2D49DA00214FEA175B08464FF02B
S315080011A00000002F00F4400007DA00EB80004FF43F
S315080011B0400100EBD07001EA60008115012901DDCC
S315080011C04FF0FF3100224FEA850CBCF1180F06D309
S315080011D01346ACF118004FF08052C24003E04FF4BA
S315080011E0801323FA0CF30CF10C0CBCF1200F04D37A
S315080011F0ACF1200C09FA0CF001E007FA0CF0002912
S315080012004FF0004801DD18B90FE00ED140450CD368
S3150800121019EB02095F4121B9404502D19F4329EAEA
S315080012200209BBEB175F00D0761C2088000502D5A3
S315080012307B48784402E07A487844193808AA30236B
S3150800124002F80A30037C0AF10101002E0AF1020AAB
S3150800125053546A4602DC4FF0300101E04FF0310189
S315080012604FF001088DF8001002D0A6F2FF3603E011
S3150800127059EA470100D06B4E002D02DC2178090798
S3150800128004D54FF002082E218DF80110C44600211E
S315080012900BE0C7F303433F01C35C491C6D1E02F80C
S315080012A00830052908F1010801DA002DF1DC0021D2
S315080012B00CE000EB1973491C1B786D1E082902F80F
S315080012C008304FEA091908F1010801DA002DF0DCA7
S315080012D021688B0602D516E0A8F10108E04505DD70
S315080012E002EB080313F8013C302BF5D0B8F1000FD8
S315080012F009DD02EB080313F8013C2E2B03D109077D
S3150800130001D4A8F10108002D05DD3E2102F80810D8
S315080013106D1E08F10108407C002E02F8080008F14D
S31508001320010804DA2D20764202F8080002E02B2094
S3150800133002F808000A214FF47A70864208F101087B
S315080013400BDB96FBF0F3303302F8083096FBF0F32C
S3150800135008F1010800FB136601E0642E0CDB64202B
S3150800136096FBF0F3303302F8083096FBF0F308F1F9
S31508001370010800FB136601E00A2E06DB96FBF1F076
S31508001380303002F8080008F1010896FBF1F001FB7D
S315080013901060303002F80800A16908F1010808EB6E
S315080013A0050202EB0A00081AA0612078C00602D4DA
S315080013B02046FFF740F9216A08AE01EB0A002062D1
S315080013C004E0D4E9012116F8010B9047BAF1010AA5
S315080013D0F7D22078C00602D52046FFF72CF96E46CC
S315080013E009E016F8010B3E280FD0D4E901219047F1
S315080013F0206A401C2062B8F10108F2D22046FFF7A5
S3150800140030F909B00320BDE8F08F206A284420622D
S3150800141003E0D4E90121302090476D1EEBD3F8E7AD
S315080014208E89000002FCFFFF10B5436913B1AFF3C4
S31508001430008001E0FFF738F9012010BD127800F1AD
S3150800144024010A7000224A700122EDE711684FF064
S31508001450FF32E9E710B5436913B1AFF3008001E045
S31508001460FFF7C2F9012010BD128800F12401828419
S315080014700022C2840122EDE711684FF0FF32E9E746
S315080014800FB4002300B589B00CA900910B99CB6065
S31508001490214B7B440693214B7B44079304236FF02F
S315080014A00042CDE901321E4A7A446B46089202464A
S315080014B0002008F0ECFA09B05DF814FB70B5064692
S315080014C04FF0FF3015460C46324686B00091CDE9FE
S315080014D0010169460020049004A8FFF7D1FF0246DF
S315080014E00498211825B108B1084600E0204628606E
S315080014F0049800280DD0002A02DD0098884208D0FA
S315080015003246081B69460094CDE9010404A8FFF792
S31508001510B7FF06B070BD0000CF010000E70100006C
S315080015202501000070B516460C46054600F044F83D
S31508001530036893F80101012806D0FF2C0FD8185D1F
S3150800154068B101202C7070BDD3F8070132462146D8
S3150800155003F2071303442846BDE8704018474FF0C6
S31508001560FF3070BD00487047F85700207546FFF7F2
S31508001570F9FFAE4605006946534620F00700854642
S3150800158018B020B5FEF74CFFBDE820404FF0000626
S315080015904FF000074FF000084FF0000B21F007014D
S315080015A0AC46ACE8C009ACE8C009ACE8C009ACE890
S315080015B0C0098D467047000010B500F005F8001DFB
S315080015C010BD00BF297E000000487047185800204B
S315080015D010B50446FFF7F0FF0068005D00F0010053
S315080015E010BD00002DE9F0411F4604460326016898
S315080015F0072A01F4006004DB08B116A505E016A564
S3150800160003E008B115A500E015A521F0100020603B
S31508001610A069C01EA0610FB1401EA0612046FFF759
S315080016200AF84FB1D4E9012138469047206A401C90
S315080016302062C01C206206E0206AFAE7D4E901218C
S3150800164015F8010B9047761EF8D22046FFF709F8E1
S31508001650BDE8F0814E414E006E616E00494E46006F
S31508001660696E6600426842B1016811F8013B23B110
S31508001670521EC0E90012184670470121C160881E33
S31508001680704742685AB1C368016843B983688B4298
S3150800169005D0491E521CC0E90012002070474FF0C1
S315080016A0FF3070472DE9F047814616468AB035481F
S315080016B078440DC88DE80D0032487844801C03AC88
S315080016C00DC884E80D0041F69B300844372190FB8D
S315080016D0F1F290FBF1F5A5F1800501FB12041B3C24
S315080016E002D56442012000E00020DFF898A0804679
S315080016F00027FA44AAF1BE0A0EE0E0070AD03246ED
S31508001700684607EB470101230AEB810101F03EF821
S315080017108DE8070064107F1C002CEED1194F7F441A
S31508001720AE3F19E0E80715D007EB04100DF1180ACB
S3150800173090E80E008AE80E00C068F04201D19819B8
S3150800174008903246012306A903A801F01FF803AB47
S3150800175083E807006D10641C002DE3D14FF00103E8
S3150800176032466946B8F1000F03A802D000F0E4FF3C
S3150800177001E001F00BF8C9E90001C9F808200AB030
S31508001780BDE8F087A085000010B50446AFF30080D9
S315080017902046BDE81040FEF7CEBD00002DE9FF4FFC
S315080017A006468BB00878FF2806D0491C2D2805D098
S315080017B000244FF0000908E000200CE00124F8E7B7
S315080017C009EB8903491C00EB43090878FF28F7D180
S315080017D014B1C9F100008146107800252C46AA46A6
S315080017E029462D2801D02B2804D1521C2D2813D088
S315080017F0002082468B461078FF280FD04FF0000C49
S315080018000A21521CA5FB017804FB018105FB0C117A
S31508001810C5194BEB0104EEE70120EAE7002108466B
S315080018204FF00000BAF1000F02D000EB800040082C
S31508001830C0F38157012F01DD4FF0FF370E9955EAA6
S31508001840040009EB01080BD04FF0020918F5FA7FDE
S3150800185016DA4FEACA70002F706008DD012007E02B
S315080018604FEACA70C6E900B00FB0BDE8F08F002095
S315080018703060FFF7A9F9C0F800901821084616E06D
S31508001880B8F5FA7F18DD002F02DAF748784401E048
S31508001890F6487844D0E90010C6E9001040EACA7054
S315080018A07060FFF791F9C0F80090142108460FB050
S315080018B0BDE8F04F08F084B8002108464FF0000054
S315080018C0B8F10001099002DAC7F1000200E03A46D1
S315080018D001DAC8F1000106A8FFF7E4FE06AB93E8B3
S315080018E0070003AB83E8070044F23E005BEA040105
S315080018F00090584604D144F21E012C465D460091DC
S31508001900210C0904014306D10099240444EA15442C
S315080019102D041039009104F07F41014306D1009946
S31508001920240244EA15642D020839009104F0704136
S31508001930014306D10099240144EA15742D01091FB3
S31508001940009104F04041014306D10099A40044EAFD
S315080019509574AD00891E009104F00041084304D136
S3150800196000986D196441401E00904FF001033A46F5
S315080019706846B8F1000FCDE9014503A902DD00F07C
S315080019801AFF01E000F0EDFEBAF1000F04460D461D
S3150800199001D084F00044002108464FF00000099960
S315080019A040F2FF77484010F00C0F07D124F00040B2
S315080019B0284303D0C4F30A50B84212D1FFF704F9FA
S315080019C0C0F80090C4F30A50B8420AD1A84878442F
S315080019D0D0E90010C6E9001004F000410843706021
S315080019E042E7C6E900543FE72DE9FF4F1F464FF08F
S315080019F0000A4FF0FF38454691B0D7E90146CDF8C1
S31508001A003CA0FFF7E1FDC0680168405C1090B96929
S31508001A1012986D1C8847396A814688470028F6D18E
S31508001A20B9F1FF3F0AD0002E24F4D06411DDB9F1D4
S31508001A302B0F08D0B9F12D0F0BD102E0404615B097
S31508001A4013E744F48064B96912986D1C8847761EBA
S31508001A508146600504A901D52D2000E02B20002E23
S31508001A6001F1010B0DF130088DF810003FDDB9F1D9
S31508001A70690F08D0B9F1490F05D0B9F16E0F02D038
S31508001A80B9F14E0F1CD13B4601A8009580E85002DB
S31508001A90DDE912126FF0020007F0FDFFC11CCED17E
S31508001AA00EE0B96912986D1C884781461398761E10
S31508001AB044F4007405600F98401C002E0F9016DD44
S31508001AC0B9F1300FEDD0B9F1780F02D0B9F1580F4E
S31508001AD00DD10F9801280AD13B46CDE90054DDE91E
S31508001AE01212001F029607F0D4FFC11CA7D1109945
S31508001AF089453ED144F0800406E01399681CAAF192
S31508001B00010A44F400740860B9696D1C1298761EBF
S31508001B10884730288146F0D02BE01099894505D1B1
S31508001B20200603D4761E44F0800418E0484606F0E2
S31508001B30B6F808B3761E0DF123018B4544F40074FC
S31508001B4008D2A9F130000BF8010B200607D5AAF137
S31508001B50010003E0200602D40AF101008246A0052E
S31508001B6002D51399681C0860B96912986D1C8847D4
S31508001B708146002ED1DC53E0002E51DDB9F1650F08
S31508001B8002D0B9F1450F4BD1A00549D5B9696D1CED
S31508001B901298761E24F440748847002E81460CDD80
S31508001BA02B2804D0B9F12D0F07D144F48074B969F4
S31508001BB012986D1C8847761E8146E00501D52D21B1
S31508001BC000E02B2108F8011BCDF8008021E0761EE5
S31508001BD00DF13901884544F400740CD2A9F130009E
S31508001BE010F0FF0088F8000002D10099884509D94D
S31508001BF008F1010806E0E00501D51E4801E042F2B9
S31508001C000F708246B96912986D1C884781461398E9
S31508001C100560002E04DD484606F041F80028D6D1B6
S31508001C20F96912988847FF2053468BF8000088F810
S31508001C30000000200A900B9004AA0CA90AA8FFF736
S31508001C40ADFDA00502D46FF00100F8E614F0240FEC
S31508001C5012D0E0071CD13868DDE90A12031D3B6083
S31508001C600068C0E9001213E0488C00003A8C0000B6
S31508001C70FE8A0000F1D8FFFF0AA9684605F0FCFFB6
S31508001C80E00705D13868009A011D396000680260CE
S31508001C902846D4E64FF0013C50F8042B51F8043B93
S31508001CA09A4221D1A2EB0C03934313EACC1317D122
S31508001CB050F8042B51F8043B9A4215D1A2EB0C03B9
S31508001CC0934313EACC130BD150F8042B51F8043B79
S31508001CD09A4209D1A2EB0C03934313EACC13DBD047
S31508001CE04FF00000704700BFD01A01BAB1FA81F16F
S31508001CF001F0180122FA01F0CB40C1F12001DBB254
S31508001D00C0B2C01A2CFA01F3D11A914311EAC311D1
S31508001D10E6D1704701491820ABBEFEE7260002004F
S31508001D20704700002DE9FF4F1F464FF03C0987B06A
S31508001D304FF00042DDE9141001F10108DDF858A062
S31508001D4002EA405003900020059083460546044663
S31508001D500490B969461E08988847AAF1010A0290B4
S31508001D60BAF1000F3BDD02982E2815D0102100F09D
S31508001D7016FA00282EDB4FF0010B0599014317D000
S31508001D80B9F1000F0BDB4A46C11700F0F5F9054318
S31508001D900C43A9F1040905E0012004900BE008B101
S31508001DA045F0010501200590049820B9361D02E08A
S31508001DB0049800B1361FB969089808F101088847E0
S31508001DC0BBF1000FAAF1010A0290C9D00999C1F81E
S31508001DD00080C5E70298702808D0502806D0F9690F
S31508001DE008988847BBF1000F14D04FE000200290F6
S31508001DF00120BBF1000F049009D0B969089808F1D1
S31508001E0001088847AAF10109B9F1000F07DCF96949
S31508001E10089888476FF001000BB0BDE8F08F2B28B3
S31508001E2004D02D280CD14FF0FF300490B9690898DA
S31508001E3008F101088847A9F10109B9F1000FE6DDA3
S31508001E40411CE4D00A2100F0AAF90028DFDB029938
S31508001E5008F1010801EB810100EB41000290B96924
S31508001E60089888470A2100F09AF9099AA9F1010900
S31508001E70B9F1000FC2F8008001DD0028E7DAF96938
S31508001E80089888470499029800FB016655EA0400F9
S31508001E9004D004F04041090002D006E0039898E017
S31508001EA0A40044EA9574AD00B61E04F0004108008B
S31508001EB002D16D196441761E159810F0240F03D0CF
S31508001EC04FF00B095C4803E04FF028096FF07D00DE
S31508001ED08246564507DAAAEB06018944B9F1410F4D
S31508001EE001DD4FF0410901200021A9F1010200F0AE
S31508001EF043F9024628400B462140084301D00121F8
S31508001F0000E00021501E029143F1FF312840214094
S31508001F10084301D0012000E000200299834651EAD7
S31508001F200B014FD0002108464FF00000039900F43A
S31508001F30400039B100EB80004FF4400100EBD0704F
S31508001F4001EA60008015012802DD4FF0FF3000E04D
S31508001F5013D0401C36D0029860B3BBF1000F0CD1E9
S31508001F604A460120002100F007F92840214008438D
S31508001F7001D0012000E00020E0B101204A460021FE
S31508001F8000F0FAF8034640190A4661412D1A8C41B9
S31508001F9011D3B9F1400F09DD159810F0240F02D0BE
S31508001FA0AAF1340603E0AAF1170600E0761C00251C
S31508001FB04FF0004406E05B1E42F1FF3220EA0305BB
S31508001FC021EA0204CAF10100B04206DA1B49039865
S31508001FD008430190002000900EE0039AC4F3D32131
S31508001FE0E80A0A43164940EA44500A433146CDE90D
S31508001FF00002684605F049FE159810F0240F0BD02C
S315080020001598C00715D13868DDE90012031D3B6035
S315080020100068C0E900120CE002A8694605F02CFE2B
S315080020201598C00705D13868029A011D39600068FD
S3150800203002604046F0E6000002FCFFFF0000F07F69
S315080020400000F03F2DE9FF4F92461D4685B04FF040
S315080020500041DDE9124BDDE914727F1E01EA4B509F
S31508002060414940F0FF4940EA0108002122F02000DA
S315080020704928049102D04E2828D04CE03BA00126DE
S3150800208007C88DE80700A9690698641C88477F1E5B
S31508002090014606D41DF8060018B121F02001814238
S315080020A00BD0E96906988847032E34D0082E32D01B
S315080020B06FF0010009B0BDE8F08F761C032E01D041
S315080020C0082EE0D1601CCAF80000DCE7A96906986A
S315080020D0641C88477F1E2AD420F02000412826D178
S315080020E0A9690698641C88477F1E20D420F0200022
S315080020F04E281CD1A9690698641C88477F1E48F497
S31508002100002849F48009CAF8004001D4282806D0D6
S31508002110E969069888475FEACB7012D022E0A96978
S315080021200698641C88477F1E01D4002803DAE969EB
S3150800213006988847BCE72928F1D1641CCAF80040EC
S31508002140E9E71BF0240F07D028680499031D2B60C4
S315080021500068C0E9001805E02868021D2A600068C2
S31508002160C0F800902046A5E70000F07F494E464992
S315080021704E49545900000000B2F120030AD5C2F1B5
S31508002180200301FA02F120FA03F300FA02F041EA09
S315080021900301704700FA03F14FF0000070473A2830
S315080021A000D2303820F02002412A01D3A2F13700AC
S315080021B0884201D34FF0FF3070475FEA400C08BFF2
S315080021C091F0000F4FEA8C234FEAC12243EA51519E
S315080021D04FEA1C5018BF00F5F0404FEA300018BF10
S315080021E041F000415FEA6C5C00F02980BCF1FF3FDA
S315080021F008BF40F080407047130C06BF12044FF02A
S31508002200100C4FF0000C130E04BF12020CF1080C50
S31508002210130F04BF12010CF1040C930F04BF9200B4
S315080022200CF1020CD30F04BF52000CF1010C11463D
S315080022304FF00002A0F11F00A0EB0C00704711F050
S31508002240004F08BF704731F000413FF4D5AF0B0C83
S3150800225006BF09044FF0100C4FF0000C0B0E04BF1C
S3150800226009020CF1080C0B0F04BF09010CF1040C50
S315080022708B0F04BF89000CF1020CCB0F04BF490079
S315080022800CF1010CCCF12003A0EB0C0022FA03F3AD
S3150800229002FA0CF241EA030100F10100704720F04E
S315080022A07F4C80EA030023F07F47ACEB070303F576
S315080022B07C5300F0004003F1FF032DE980494FEA03
S315080022C0154B09B44FEA144325EA0B4E24EA034892
S315080022D00FF2042606EB132749083E785FEA320216
S315080022E003FB0667C7F5000707FB06F64FEA5437F0
S315080022F04FEAD64606F1020607FB066CCCF1005CEF
S315080023004FEA1C472CEA074C07FB06F40CFB06F5BC
S3150800231004EB15464FEA961634BF00204FF00040EE
S315080023204FEAD13706FB07FC4FEA1C4C0CFB0BF7B0
S31508002330D21B03FB0CF761EB07010CFB0EF7B0EBA6
S31508002340074072EB17420CFB08F734BFA2EB0742B3
S31508002350B2EB074261EB17414FEA0C444FEA91078B
S3150800236006FB07FC4FEA1C4C0CFB0BF7B0EBC7400F
S3150800237072EB573203FB0CF734BFA2EBC742B2EB42
S31508002380C74261EB57310CFB0EF7B0EBC70072EB97
S3150800239057720CFB08F734BFA2EBC702B2EBC702B1
S315080023A061EB5771039F4FEA816141EA921104EB91
S315080023B0CC044FEAD1374FEA826206FB07FC42EAB1
S315080023C090124FEA80604FEA1C4C0CFB0BF7D21BAD
S315080023D003FB0CF761EB07010CFB0EF7B0EB0740AC
S315080023E072EB17420CFB08F734BFA2EB0742B2EBBD
S315080023F0074261EB17414FEA8C554FEA910704EB08
S315080024009C2406FB07FC4FEA1C4C0CFB0BF7B0EBB5
S31508002410C74072EB573203FB0CF734BFA2EBC74237
S31508002420B2EBC74261EB57310CFB0EF7B0EBC700B6
S3150800243072EB57720CFB08F734BFA2EBC702B2EB7C
S31508002440C70261EB577115EB4C254FEA816141EAEA
S3150800245092114FEA82624FEAD13742EA901206FB9E
S3150800246007FC44F100044FEA80604FEA1C4C0CFB61
S315080024700BF7D21B03FB0CF761EB07010CFB0EF7FE
S31508002480B0EB074072EB17420CFB08F734BFA2EB20
S315080024900742B2EB074261EB174115EB1C154FEAF1
S315080024A0813141EA92414FEA823242EA90424FEA4A
S315080024B080304FEA0C7644F1000448EA03434EEABA
S315080024C00B484FF0000EB2EB080C71EB030724BF64
S315080024D0624639464EEB0E0E4FF0000B001852417D
S315080024E049414BEB0B0BB2EB080C71EB03077BF185
S315080024F0000B24BF624639464EEB0E0E4FF0000B1A
S315080025000018524149414BEB0B0BB2EB080C71EB2F
S3150800251003077BF1000B24BF624639464EEB0E0ECD
S3150800252051EA020718BF46F0010616EB0E7655F17A
S31508002530000254F1000103D5BDE88901BDE8008811
S31508002540BDE88901BDE80048B619524141EB0101D1
S31508002550A3F10103704780807F7E7D7C7B7A797842
S31508002560777676757473727171706F6E6E6D6C6C4A
S315080025706B6A6A69686867666665646463636261EC
S315080025806160605F5F5E5E5D5D5C5C5B5B5A5A596D
S3150800259059585857575656555555545453535252D9
S315080025A05251515050504F4F4F4E4E4D4D4D4C4C31
S315080025B04C4B4B4B4A4A4A4949494848484747477A
S315080025C047464646454545444444444343434342B7
S315080025D0424242414141000046EA0646A3F570538D
S315080025E04FEA164646EA42564FEAD22242EA415294
S315080025F010B54FEAD121A3F1010300F02FF820F01E
S31508002600004000F1020C00F0004701EB00501146B3
S31508002610BCF5006F40EA070000D210BDBAF1000F02
S315080026200AD01CB503B44FF004004FF004014FF074
S3150800263000000FBCBDE810404FF00001BBF1010FD0
S31508002640B9BF04484FF0FF310348002140EA0700AC
S3150800265010BD00BFFFFFEF7F0000F07F002B9C46F8
S3150800266030D477002BD01CB54FEA370703B44FF0A8
S3150800267010004FF01001BAF1000F06D0BCF1000FA0
S31508002680DCBF40F0080040F008014FF000000FBC26
S31508002690BDE810400BF1010BBBF1010F08BF5FEA63
S315080026A0170722BF12F1010211F101014FF0004193
S315080026B043F1000300F0004043EA00007047F9D3F5
S315080026C05708D0E746EA064613F1400F4FEA164682
S315080026D01FDD13F1200FDFBF16430A460021203302
S315080026E05B42BED0C3F1200746EA064602FA07F760
S315080026F04FEA164646EA0706C3F1200722FA03F20E
S3150800270001FA07F721FA03F14FF0000342EA07023C
S31508002710A7E746EA020646EA06464FEA164646EAA4
S315080027200106BCBF46EA0646360C4FF000034FF0DA
S3150800273000024FF0000194E72DE9804C9A46934633
S3150800274070B491E8380007C831EA400C48BF34EA4B
S31508002750430C03D5FFF7A3FDFFF780FFF0BCBDE8E8
S31508002760008C2DE9804C9A46934670B491E838005F
S3150800277007C831EA400C48BF34EA430C03D5FFF7D3
S315080027808EFDFFF729FFF0BCBDE8008C2DE9804CD3
S315080027909A46934670B491E8380007C810F0804FFF
S315080027A008BF13F0804F03D100F01AF8FFF756FF61
S315080027B0F0BCBDE8008C2DE9804C9A46934670B46F
S315080027C091E8380007C810F0804F08BF13F0804F13
S315080027D003D100F005F8FFF7FFFEF0BCBDE8008C5A
S315080027E020F07F4780EA030023F07F4C07EB0C03B9
S315080027F0A3F57C5300F00040A3F1FE0392F0000F0E
S3150800280000F0B38095F0000F00F077802DE90149BC
S315080028104FEA11404FEA144621EA004800FB06FC3D
S3150800282024EA064708FB06F607FB08F800FB07F745
S3150800283018EB06484CEB164C4FEA124B18EB0748B8
S315080028404FEA15464CEB174022EA0B4E0BFB06FCEB
S3150800285025EA06470EFB06F607FB0EFE0BFB07F7F7
S315080028601EEB064E4CEB164C4FF000061EEB074EC1
S315080028704CEB174B18EB0B0840F1000018EB0E0B4E
S3150800288058EB000840F100008F1A4FF000013CBFDA
S31508002890C943661B14BFB5EB040C00213CBFC943F2
S315080028A0F61B4FEA17444EEA8E0E27EA04454FEA0E
S315080028B01C4704FB07622CEA074C05FB07F70CFBD1
S315080028C005F604FB0CFC16EB074642EB174216EB23
S315080028D00C4642EB1C421BEB060658EB0202414132
S315080028E046EA9E0601D5BDE80189B619524141EB73
S315080028F00101A3F10103BDE801894FEA14454FEA36
S31508002900114724EA054621EA074C05FB07F406FBAE
S3150800291007F70CFB06F105FB0CFC11EB074144EB32
S3150800292017444FEA124711EB0C4144EB1C4422EAC8
S31508002930074C05FB07F206FB07F70CFB06F605FB3B
S315080029400CFC16EB074642EB174216EB0C4642EB1D
S315080029501C456A1854F1000148BF7047B619524120
S3150800296041EB0101A3F10103704795F0000F37D041
S315080029704FEA11424FEA144721EA024624EA074C75
S3150800298002FB07F106FB07F70CFB06F402FB0CFC3F
S3150800299014EB074441EB17414FEA154714EB0C4477
S315080029A041EB1C4125EA074C02FB07F506FB07F736
S315080029B00CFB06F602FB0CFC16EB074645EB174527
S315080029C016EB0C4645EB1C42121951F1000148BFA3
S315080029D07047B619524141EB0101A3F10103704753
S315080029E04FEA14454FEA114724EA054621EA074CFF
S315080029F005FB07F106FB07F70CFB06F24FF000068E
S31508002A0005FB0CFC12EB074241EB174112EB0C429B
S31508002A1051EB1C4148BF7047921841EB0101A3F1E5
S31508002A200103704710B5846AE16D11F0500F06D0A6
S31508002A30E16DC90625D5204600F04CFF10BDE06DB6
S31508002A4040F40070E06520680168090716D503F0B0
S31508002A50BEFB78B12068C068800400280ADBE06DF8
S31508002A6020F48070E065E06DC00403D4E06D40F0AA
S31508002A700100E065204600F02BFF10BDC068800706
S31508002A80EBE7616D496BBDE81040084710B5806AF1
S31508002A90C16D41F04001C165016E41F00401016656
S31508002AA000F018FF10BD10B5806A00F012FF10BDC7
S31508002AB070B50446006881688268C1F3400112F067
S31508002AC0010F28D039BB816801F00D01012914D105
S31508002AD08168124A1140891C8160216803200860B8
S31508002AE001F0C6FB054612E001F0C2FB401B0228B6
S31508002AF00DD920688068C00709D0E06D40F0100045
S31508002B00E065206E40F001002066012070BD206857
S31508002B108068C007E8D1002070BD0000C0FFFF7FB5
S31508002B20F8B50446002000902068816811F0010F6E
S31508002B3041D18168214A11422ED18168D543294065
S31508002B40491C81601E48806800F0E07000020DD5BF
S31508002B501C481D490068B0FBF1F0401C00EB400022
S31508002B60800000E0401E00900028FBD101F080FBA9
S31508002B7006461BE0816811F0010F03D181682940E0
S31508002B80491C816001F074FB801B02280ED920685D
S31508002B900068C043C00709D0E06D40F01000E0654A
S31508002BA0206E40F0010020660120F8BD206801680B
S31508002BB0C943C907DED10020F8BD00003F000080E8
S31508002BC00003005018000020400D0300FEE7000037
S31508002BD0014801F006B90000B0050020014801F0DF
S31508002BE000B9000010060020014801F0FAB80000FC
S31508002BF014030020014801F0F4B80000B4020020D4
S31508002C00014801F0EEB80000BC0400200D49026836
S31508002C108A4201D20C4901E00B492031D2B2142371
S31508002C20083AB2FBF3F2436C02F01F0223F00303E7
S31508002C301944816404498031C164012191400165C8
S31508002C407047000008040240000802400179074A5C
S31508002C5002EB81024265054A4432491E826501F04B
S31508002C601F0201219140C16570470000FC0802401F
S31508002C7030B5D0E913456560446D14B1D0E9164501
S31508002C80656090F8444004F01F050124AC40056CCB
S31508002C906C60046863608368102B036803D09960CE
S31508002CA00068C26030BD9A600068C16030BD704778
S31508002CB072B6FEE710B52DED048BF0EE419AF0EEF4
S31508002CC0408AB0EE608AB0EE690A05F095FCB0EE6F
S31508002CD0409AB0EE690A05F0D1FC69EE281AB0EE02
S31508002CE0401A69EE080A41EE481A41EE280ABDEC78
S31508002CF0048BBDE81040B0EE610A05F00FBB00007A
S31508002D00F8B500260446009690F858000D460128A6
S31508002D100BD0012084F858002046FFF7C9FE0100B1
S31508002D20E06D04D040F010002AE00220F8BD20F43F
S31508002D30885040F00200E06520688268134B1A400C
S31508002D4005F080431A4342F000428260104A206828
S31508002D500EE0009B5B1C0093934209D3E06D20F0C4
S31508002D60020040F01000E06584F858600120F8BDC4
S31508002D708368DB0FEDD1E06D20F0020040F0010022
S31508002D80E06584F858600846F8BD0000C0FFFF3FBC
S31508002D9002DE04002DE9F84F4FF000080446CDF88E
S31508002DA000800D4694F85820DFF8EC936169474691
S31508002DB04046012A0AD00126F84A84F8586041B1EB
S31508002DC0296A012905D0A36EEBB129E00220BDE8E6
S31508002DD0F88F6868092838D1A96A4FF4785041B144
S31508002DE02B6801F07C0100EA53400843E96A08436E
S31508002DF002E0296800EA51402168CB6C134003437E
S31508002E00CB64606621E0C4E91971A96A286A31B100
S31508002E1001F07C01401E0843E96A084300E0401EB1
S31508002E2029682B79C1F3846103F01F039940014394
S31508002E30A06E401EA066636E43EA0103636604D172
S31508002E402068C16C11401943C164206803F0B3F9C6
S31508002E5058B995F8250098B12068C16895F82620D4
S31508002E6021F4401141EA4251C160206803F0ABF9F0
S31508002E708246206803F09FF95AEA00000DD0FBE06D
S31508002E8095F8260095F82410400540EA0151206877
S31508002E90C26822F440121143E6E7A86A30B1E86A2C
S31508002EA020B195F8250001285ED003E095F82500A5
S31508002EB0012804D02068C16821F0007103E0206869
S31508002EC0C16841F00071C16095F83000012852D000
S31508002ED02068016921F002010161AA682968206851
S31508002EE0B2F1004F38D003F089F92068416921F022
S31508002EF00041416120686969C268C2F3C102520093
S31508002F0091402A69042A44D000EB82002B68026E9D
S31508002F10DFF88CC203F0F84302EA0C020B431A43AB
S31508002F2042F00041016620682A69A96900EB82001F
S31508002F30026E22F080720A430266297F2268286997
S31508002F40012923D05FF0000102EB8000026E22F017
S31508002F5000720A4302668FE0002203F04FF92068E8
S31508002F60416941F00041C4E7E06D40F02000E065AA
S31508002F704FF00108A8E7D5E90D100143206802695A
S31508002F8022F4FF7242F002021143A5E74FF00071E6
S31508002F90DAE7002103F005F9400320684FF0000145
S31508002FA072D003F0FEF890FAA0F0B0FA80F1286823
S31508002FB042036ED090FAA0F0B0FA80F0814204D1B4
S31508002FC000221146206803F030F90121206803F039
S31508002FD0E8F8400320684FF001015DD003F0E1F8FE
S31508002FE090FAA0F0B0FA80F12868420359D090FA16
S31508002FF0A0F0B0FA80F0814204D1002201212068B5
S3150800300003F013F90221206803F0CBF84003206887
S315080030104FF0020148D003F0C4F890FAA0F0B0FAD5
S3150800302080F12868420344D090FAA0F0B0FA80F004
S31508003030814204D100220221206803F0F6F8032118
S31508003040206803F0AEF8400320684FF0030133D040
S3150800305003F0A7F890FAA0F0B0FA80F128684203C6
S315080030602FD090FAA0F0B0FA80F0814204D1002265
S315080030700321206803F0D9F82068816811F0010F50
S3150800308022D0B6E000E004E003F08BF8C0F38461D8
S315080030908DE7C0F3846091E703F083F8C0F3846199
S315080030A0A2E7C0F38460A6E703F07BF8C0F3846167
S315080030B0B7E7C0F38460BBE703F073F8C0F3846135
S315080030C0CCE7C0F38460D0E72A7B296850F8B03F84
S315080030D0C1F3120C23EA0C0302F0180C314A22FA47
S315080030E00CF20A4013430360E96849457ED1286813
S315080030F041031CD090FAA0F1B1FA81F1491C01F004
S315080031001F0109294FEA403132D8002912D000BFE1
S3150800311090FAA0F1B1FA81F101F1010101F01F0164
S3150800312006FA01F609D100BFC0F3846109E0C0F3CD
S315080031308461E3E7C0F38461EEE790FAA0F1B1FA9F
S3150800314081F101F1010101F01F0146EA816102D115
S31508003150C0F3846003E090FAA0F0B0FA80F000F1C2
S31508003160010000F01F0000EB400041EA00513AE080
S3150800317000290ED090FAA0F1B1FA81F101F101010E
S3150800318001F01F0106FA01F60ED100BFC0F38461F3
S315080031900EE0C0F38461F1E700007F4000401004B0
S315080031A000F0FF03FFFF070090FAA0F1B1FA81F1E2
S315080031B001F1010101F01F0146EA816102D1C0F364
S315080031C0846003E090FAA0F0B0FA80F000F1010004
S315080031D000F01F002B4A00EB400002EB005041EACA
S315080031E0000141F00071AA68206800E001E003F0E0
S315080031F005F825482A68024240D024488168244BAD
S3150800320001F0E0719A4202D0224B9A421BD10B027E
S3150800321019D42268B2F1A04F30D1826841F4000176
S3150800322022F0E0720A4382601B481C490068B0FB22
S31508003230F1F0801C00EB4000800000E0401E00908A
S315080032400028FBD11AE0164D164BAA4207D1CD012C
S3150800325005D422689A4211D041F0807109E0124DD6
S31508003260AA420BD14A0209D422689A4206D041F4EE
S315080032708001826822F0E0720A43826084F85870FE
S315080032804046A4E5000020FE000008800003005028
S31508003290000021C31000C09018000020400D030054
S315080032A0000052C700010050000084CB2DE9F04110
S315080032B004464548806800F01F05206802F07BFF39
S315080032C008BB2168C868C96C00F0004011F4C07FCB
S315080032D000D190B194F85800012814D0012084F840
S315080032E058002046FFF71CFC01004FF000020CD0E6
S315080032F084F858200846BDE8F081E06D40F02000CB
S31508003300E0650120F7E70220F5E7E06DC00504D582
S31508003310206E20F00800206600E02266E06D42F28A
S315080033200103984340F48050E065284B20684FF02D
S31508003330A046984201D1374600E00746874200D0AA
S315080033401DB9E76D27F48017E7656027076084F8DD
S3150800335058202068C268920203D5426842F4806207
S315080033604260A06908282068426807D022F0400217
S3150800337042602068426842F0200206E022F02002FD
S3150800338042602068426842F04002426020689842E3
S3150800339001D1324600E00246824209D045B1062DE7
S315080033A006D0072D04D0E06D40F48010E065A1E753
S315080033B0C26812F0007F9DD18268054B1A4042F020
S315080033C00802826096E700000003005000010050E2
S315080033D0C0FFFF7F2DE9F047044690F858009CB0DF
S315080033E00E464FF00009012815D0012084F8580030
S315080033F000251795189520684FF0A04840450ED12E
S31508003400284F0097384602F0DEFE8246206802F012
S31508003410DAFE60B10EE002201CB0BDE8F087E06D70
S3150800342040F02000E06584F858500120F4E7BAF12E
S31508003430000F09D0E06D40F02000E0654FF001096B
S3150800344084F858504846E7E71748326840F61F712F
S31508003450002A826822F4604216D094F8383042EA8C
S31508003460433273681A438260D8F80820BB6802F0B2
S31508003470010203F001031A43E2D1B36832681A4322
S3150800348083688B431A430BE08260D8F80820BB6830
S3150800349002F0010203F001031A43D1D182688A437C
S315080034A08260CDE700010050000300502DE9F84F77
S315080034B000270446009790F85800DFF8E0930D4679
S315080034C0B846012811D0012684F85860206802F011
S315080034D076FE60B1E06D40F02000E0655FF0010720
S315080034E084F858803846BDE8F88F0220FBE7D5E90E
S315080034F000210C23206803EA91131844036B01F09A
S315080035001F014FF01F0C0CFA01FCC2F3846223EA78
S315080035100C038A4013430363206802F050FE824678
S31508003520206802F044FE5AEA00003CD1AA682968DD
S315080035302068B2F1004F37D002F051FE2068416989
S3150800354021F00041416120686969C268C2F3C1027D
S31508003550520091402A69042A31D000EB82002B6878
S31508003560026EDFF83CC303F0F84302EA0C020B4391
S315080035701A4342F00041016620682A69A96900EBEE
S315080035808200026E22F080720A430266297F226850
S315080035902869012910D0002102EB8000026E22F072
S315080035A000720A4302667DE0002202F018FE2068D7
S315080035B0416941F00041C5E74FF00071ECE7002191
S315080035C002F0E9FD400320684FF0000172D002F0D6
S315080035D0E2FD90FAA0F0B0FA80F1286842036ED0B6
S315080035E090FAA0F0B0FA80F0814204D10022114688
S315080035F0206802F012FE0121206802F0CCFD40038B
S3150800360020684FF001015DD002F0C5FD90FAA0F0E8
S31508003610B0FA80F12868420359D090FAA0F0B0FABF
S3150800362080F0814204D100220121206802F0F5FDD4
S315080036300221206802F0AFFD400320684FF0020126
S3150800364048D002F0A8FD90FAA0F0B0FA80F12868F8
S31508003650420344D090FAA0F0B0FA80F0814204D137
S3150800366000220221206802F0D8FD0321206802F01A
S3150800367092FD400320684FF0030133D002F08BFD22
S3150800368090FAA0F0B0FA80F1286842032FD090FA99
S31508003690A0F0B0FA80F0814204D10022032120680C
S315080036A002F0BBFD2068816811F0010F22D0ACE062
S315080036B000E004E002F06FFDC0F384618DE7C0F31B
S315080036C0846091E702F067FDC0F38461A2E7C0F366
S315080036D08460A6E702F05FFDC0F38461B7E7C0F334
S315080036E08460BBE702F057FDC0F38461CCE7C0F302
S315080036F08460D0E72A7B296850F8B03FC1F3120CE2
S3150800370023EA0C0302F0180C664A22FA0CF20A4065
S3150800371013430360E968494577D1286841031CD0FB
S3150800372090FAA0F1B1FA81F1491C01F01F010929AB
S315080037304FEA403132D8002912D000BF90FAA0F1E2
S31508003740B1FA81F101F1010101F01F0106FA01F652
S3150800375009D100BFC0F3846109E0C0F38461E3E7DF
S31508003760C0F38461EEE790FAA0F1B1FA81F101F1B4
S31508003770010101F01F0146EA816102D1C0F38460AC
S3150800378003E090FAA0F0B0FA80F000F1010000F032
S315080037901F0000EB400041EA005132E000290ED03C
S315080037A090FAA0F1B1FA81F101F1010101F01F01CE
S315080037B006FA01F606D100BFC0F3846106E0C0F33D
S315080037C08461F1E790FAA0F1B1FA81F101F1010102
S315080037D001F01F0146EA816102D1C0F3846003E06B
S315080037E090FAA0F0B0FA80F000F1010000F01F0096
S315080037F02D4A00EB400002EB005041EA000141F07F
S315080038000071AA68206802F0EAFC28482A68024281
S315080038103FF466AE26488168264B01F0E0719A426D
S3150800382002D0254B9A421CD10B021AD42268B2F157
S31508003830A04F7FF455AE826841F4000122F0E07291
S315080038400A4382601D481E490068B0FBF1F0401C1F
S3150800385000EB4000800000E0401E00900028FBD1ED
S315080038603EE6184D184BAA4207D1CD0105D4226869
S315080038709A42F5D041F0807109E0144DAA42EFD181
S315080038804A02EDD422689A42EAD041F4800182685D
S3150800389022F0E0720A43826022E6000000007F40C0
S315080038A000F0FF03FFFF0700000020FE000008806D
S315080038B000030050000021C31000C090180000202B
S315080038C0400D0300000052C700010050000084CBE1
S315080038D07047704770470000F8B54FF000050400C0
S315080038E02E46009502D0E06D10B107E00120F8BD24
S315080038F0204600F0EBF8266684F858602068816850
S31508003900C1F3407119B18168684A11408160206825
S315080039108168C1F3007189B98168654A114041F02F
S3150800392080518160634864490068B0FBF1F040004B
S31508003930801C00E0401E00900028FBD120688168AA
S31508003940C1F3007141B9E16D41F01001E165216EE5
S3150800395041F001012166012502F031FCE16DC9063D
S3150800396000D430B1E06D40F01000E065012528462E
S31508003970F8BDE06D20F4807040F00200E065206834
S31508003980806810F0010F11D14FF0A04080684B49B4
S3150800399000F00100896801F00101084306D1484892
S315080039A06168826822F47C120A438260E168E06BEF
S315080039B0627F0843A16841EA4231084394F824101B
S315080039C040EA0140012904D1218D3E4A02EB4141DA
S315080039D00843E16A29B101F47871226B014342EA8E
S315080039E001002268D168384B19400143D16020682C
S315080039F00169626B21F0406111430161206802F0A0
S31508003A00D6FB70BB207F94F83810800340EA410249
S31508003A102168C86844F2020398431043C8602069C5
S31508003A200028206801690AD041F4803101612068C4
S31508003A3050F8C01F22696FF30D01114307E021F406
S31508003A4080310161206850F8C01F6FF30D010160D5
S31508003A5094F8400001280CD02068016921F0010182
S31508003A600161606901282068016B21F00F0111D0FE
S31508003A7013E0D4E911010843D4E9131211430843AA
S31508003A8021680A6940F2FC739A43104340F001002A
S31508003A900861E6E7226A521E11430163E06D20F0D1
S31508003AA0020040F00100E06561E70000C0FFFF5F2B
S31508003AB0C0FFFF7F18000020400D030000010050E2
S31508003AC0000300500000FEFF0740F0FF2DE9F04F0D
S31508003AD097B00646142111A8FCF778FD44216846DC
S31508003AE0FCF774FD4FF40040316800258203424F0D
S31508003AF0424C4FF003084FF080094FF4807A4FF498
S31508003B00806BB1F1A04F10D03D4B994242D10F9234
S31508003B100090684600F0D2FC08B1FFF7C9F838688B
S31508003B20401C3860012838D03FE00F920090684664
S31508003B3000F0C4FC08B1FFF7BBF83868401C3860D1
S31508003B40012807D1E06C40F40050E064E06C00F412
S31508003B5000501690E06C40F00100E064E06C1395AC
S31508003B6000F0010016900F20CDE9110811A94FF0B9
S31508003B70904000F04BFA244C224801C40520E4E8A2
S31508003B8002052020A4E8200E64E807051E482BE05D
S31508003B907465A66217B0BDE8F08FE06C40F400507B
S31508003BA0E064E06C00F400501690E06C40F002000F
S31508003BB0E064E06C139500F0020016900420CDE94D
S31508003BC0110811A9114800F021FA0F4C0D4860346C
S31508003BD0143801C42420E4E802052020A4E8200EB5
S31508003BE064E807050848603000F058F90028CFD087
S31508003BF0FFF75EF8CCE70000000000200010024046
S31508003C000001005044000240B402002000040048AD
S31508003C102DE9F0410446344817468846806800F086
S31508003C201F05206802F0CBFA00285AD194F85800EC
S31508003C30012856D0012084F85800002625B1052D04
S31508003C4002D0092D00D003E02046FEF769FF18B11F
S31508003C5084F85860BDE8F081E06D40F6016188435C
S31508003C6040F48070E06521492068884202D14FF00F
S31508003C70A04100E00146814200D01DB9E06D20F464
S31508003C808010E065E06DC00404D5206E20F00600C3
S31508003C90206600E02666616D1548C862616D1548A4
S31508003CA00863616D1448486321681C20086084F81D
S31508003CB058602068416841F0100141602068C16879
S31508003CC041F00101C16021683B4642464031606DC2
S31508003CD000F044F921688A68084B1A40121D8A6068
S31508003CE0B8E70220B6E700000003005000010050C4
S31508003CF0252A0008A72A00088D2A0008C0FFFF7F8A
S31508003D0010B590F8253000210122022B03D004219A
S31508003D10C163012122E003681C6824F00E041C60BC
S31508003D20836C1C6824F480741C6003681C6824F087
S31508003D3001041C6090F84430046C03F01F0302FA77
S31508003D4003F36360D0E913345C60436D33B11C68D8
S31508003D5024F480741C60D0E916345C6080F8252051
S31508003D60002280F82420084610BD70B590F825205A
S31508003D70002401212346022A07D00422C26380F8C0
S31508003D80251080F82430012429E00268156825F0FA
S31508003D900E0515600268156825F001051560826C28
S31508003DA0156825F48075156090F84420056C02F0B6
S31508003DB01F0201FA02F26A60D0E913255560426DC6
S31508003DC032B1156825F480751560D0E91625556059
S31508003DD080F8251080F82430816B01B18847204689
S31508003DE070BDF0B4016C0C6801680D6890F8442049
S31508003DF002F01F06042202FA06F3234211D06B07CB
S31508003E000FD50B689B0603D40B6823F004030B60DD
S31508003E1090F8441001F01F018A40016C4A60016B5A
S31508003E201DE0022303FA06F727424FF0000C4FF075
S31508003E30010218D0AF0716D50C68A40605D40C687D
S31508003E4024F00A040C6080F8252090F8441001F04C
S31508003E501F018B40016C4B6080F824C0C16A0029A1
S31508003E601AD0F0BC08470823B340234214D02B07C6
S31508003E7012D50B6823F00E030B6090F84410036C00
S31508003E8001F01F0102FA01F15960C26380F825208A
S31508003E9080F824C0416BE2E7F0BC704770B50400B7
S31508003EA00CD02B4A21681420914209D2294A0A4487
S31508003EB0B2FBF0F08000606427480AE0012070BD7C
S31508003EC0234A52420A44B2FBF0F08000606420485C
S31508003ED008382064022084F825000A6847F6F0703E
S31508003EE08243D4E902031843D4E904352B43184323
S31508003EF0A3691843E3691843236A18431043086003
S31508003F002046FEF783FEA0680025B0F5804F00D155
S31508003F106560A16C20790860D4E913014160606886
S31508003F20401E032808D82046FEF790FE606D0560FF
S31508003F30D4E91601416002E06565A565E565E563B6
S31508003F40012084F8250084F82450002070BD000064
S31508003F5008040240F8FFFDBF0000024070B50446A1
S31508003F6090F82400002501280CD0012084F82400AC
S31508003F7094F825600020012E06D084F82400022536
S31508003F80284670BD022070BD022684F82560E063CD
S31508003F902068066826F0010606602046FEF768FED9
S31508003FA0206B00282068016802D041F00E0106E067
S31508003FB021F0040101602068016841F00A010160EE
S31508003FC0A06C0168C90303D5016841F480710160DA
S31508003FD0606D18B1016841F480710160206801685C
S31508003FE041F001010160CBE770B5044600F040F9E5
S31508003FF00546601C02D004484068044400F038F9BD
S31508004000401BA042FAD370BD1C0000202DE9F04FDA
S31508004010DFF82092002301260324A9F1040B85B0BA
S315080040200F2709F1040AABF1040EFAE006FA03F5C4
S315080040302A407CD091F804C00CF0030CBCF1010FA7
S3150800404002D0BCF1020F26D1D0F808C0CDF800C0C6
S315080040504FEA430C04FA0CF8CDF810C0DDF800C09E
S315080040602CEA080CCDF800C0D1F80C80DDF810C099
S3150800407008FA0CF8DDF800C048EA0C08C0F8088011
S31508004080D0F804C02CEA050C0D79C5F300159D403F
S3150800409045EA0C0545600D79ED43AD070ED0C568B8
S315080040A04FEA430804FA08FC25EA0C05D1F808C0CB
S315080040B00CFA08FC4CEA050CC0F80CC00D7905F0A2
S315080040C00305022D16D1DD0800EB850CCDF808C0D6
S315080040D0DCF820805D074FEAD56C07FA0CF528EA6C
S315080040E005080D6905FA0CF5DDF808C045EA080566
S315080040F0CCF8205005684FEA430CCDF808C004FAFE
S315080041000CFC25EA0C0591F804C00CF00308DDF850
S3150800411008C008FA0CF848EA0508C0F800804D6897
S3150800412015F4403F7CD0444DD5F860C000E077E0F8
S315080041304CF0010CC5F860C02D6E23F0030C05F099
S31508004140010500953D4D65440295AD684FEA837CAF
S315080041504FEA1C7807FA08FC25EA0C05B0F1904FDF
S3150800416006D0DFF8DCC0604505D14FF0010C20E031
S315080041704FF0000C1DE0DFF8CCC0604502D14FF0CF
S31508004180020C16E0DFF8C0C0604502D14FF0030C00
S315080041900FE0DFF8B8C0604502D14FF0040C08E024
S315080041A0DFF8ACC0604502D14FF0050C01E04FF0D6
S315080041B0060C0CFA08FC4CEA050C029DC5F808C06A
S315080041C0D9F80050CC46D1F8048095435FEAC82850
S315080041D000D51543CCF80050DAF80050D446D1F88B
S315080041E0048095435FEA882800D51543CCF800502B
S315080041F0DBF80050DC46D1F8048095435FEA88383E
S3150800420000D51543CCF80050DEF80050F446D1F836
S31508004210048095435FEAC83800D51543CCF80050AA
S315080042205B1C0A6832FA03F57FF400AF05B0BDE8F7
S31508004230F08F000008040140001002400000014011
S315080042400004004800080048000C00480010004818
S3150800425000140048426921EA02030A4043EA02417F
S31508004260816170470AB181617047816270470000B9
S3150800427001488068704700001C00002002488168D9
S3150800428042681144816070471C00002010B5002464
S31508004290032000F09BF80F2000F008F808B101246D
S315080042A001E000F047F8204610BD000030B505468D
S315080042B01B4887B0816D41F020018165806D06A994
S315080042C000F02000009001A800F020FB00F03EFB63
S315080042D01449154AB0FBF1F11448491E02604160C1
S315080042E040F2E7320021C0E90321816001F05FF85E
S315080042F0040012D10D4801F0D3F804000DD137207F
S3150800430000F036F8102D07D200222946372000F093
S315080043103DF80748056000E0012407B0204630BD97
S315080043200010024040420F0000140040D80300204D
S315080043301C0000200D4808B5016E41F00101016618
S31508004340016E01F001010091816D41F08051816596
S31508004350806D002200F0805000900F21901E00F022
S3150800436015F8BDE8084000F0A1B8000000100240AA
S31508004370002809DB00F01F02012191404009800056
S3150800438000F1E020C0F8001170470000F0B40E4BB1
S315080043901B680C46C3F30223C3F10705042D00D995
S315080043A00425191D072901D2002300E0DB1E01267A
S315080043B006FA05F1491E214099409E40761E164090
S315080043C03143F0BC03F0B9BA0CED00E0064900F041
S315080043D0070208684FF6FF03184040EA0220034A1E
S315080043E010430860704700000CED00E00000FA0575
S315080043F02B492C4B0A6832214A432B4940B1B0F568
S31508004400007F086829D020F4C06040F480602CE062
S315080044100868C0F34120022804D051F8800F20F420
S31508004420807022E0D1F8800020F48070C1F8800006
S31508004430086820F4C06040F400700860B2FBF3F02E
S31508004440401C00E0401E4A69520501D50028F9D1F2
S31508004450486940050AD503207047C0F34120022861
S3150800446006D051F8800F40F480700860002070472D
S31508004470D1F8800040F48070C1F88000086820F404
S31508004480C06040F400700860B2FBF3F0401C00E026
S31508004490401E4A695205DBD50028F9D1D8E7000045
S315080044A01800002040420F00007000400248816852
S315080044B041F4804181607047007000402DE9F8435F
S315080044C00446006800269D4D00035ED5A86D0027AA
S315080044D0C00008D4A86D40F08050A865A86D0127D3
S315080044E000F080500090DFF85892D9F8001041F497
S315080044F08071C9F80010FFF7BBFE804606E000BFD2
S31508004500FFF7B6FEA0EB080002282BD8D9F8000062
S31508004510C005F5D5D5F8900010F4407014D0216C7C
S31508004520814211D0D5F89000D5F8901020F440704B
S3150800453041F48031C5F89010D5F8901021F48031F7
S31508004540C5F89010C5F89000C00711D0FFF790FE87
S31508004550804641F2883907E0FFF78AFEA0EB08019A
S31508004560494501D903260BE0D5F890008007F3D515
S31508004570D5F89000216C20F440700843C5F89000E7
S315080045801FB1A86D20F08050A8652078C00707D015
S31508004590D5F88800616820F003000843C5F888004C
S315080045A02078800707D5D5F88800A16820F00C0088
S315080045B00843C5F888002078400707D5D5F888004D
S315080045C0E16820F030000843C5F888002078000725
S315080045D007D5D5F88800216920F0C0000843C5F83A
S315080045E088002078800607D5D5F88800616920F408
S315080045F040600843C5F888002078400607D5D5F8F6
S315080046008800A16920F440500843C5F8880020783E
S31508004610000607D5D5F88800E16920F4404008432C
S31508004620C5F888002088C00507D5D5F88800216A0E
S3150800463020F440300843C5F888002088800507D54F
S31508004640D5F88800616A20F440200843C5F8880038
S31508004650208840050FD5D5F88800A16A20F44010B7
S315080046600843C5F88800A06AB0F5801F03D1E8683A
S3150800467040F48010E860208800050FD5D5F888003A
S31508004680E16A20F440000843C5F88800E06AB0F5FE
S31508004690800F03D1E86840F48010E8602088C004E1
S315080046A00FD5D5F88800216B20F040700843C5F86F
S315080046B08800206BB0F1807F03D1E86840F4801051
S315080046C0E86020884FF0006180040ED5D5F8880090
S315080046D0626B20F040601043C5F88800606B884222
S315080046E003D1E86840F48010E860208840040ED5BD
S315080046F0D5F88800A26B20F040601043C5F8880002
S31508004700A06B884203D1E86840F48010E8602088EE
S3150800471000040FD5D5F88800E16B20F04050084317
S31508004720C5F88800E06BB0F1805F03D1E86840F413
S315080047308030E8603046BDE8F8830000001002408B
S31508004740007000402DE9F0470E4605004FF00007BF
S3150800475025D0DFF89C81D8F8000000F00F00B042A1
S315080047600CD2D8F8001021F00F013143C8F8001018
S31508004770D8F8000000F00F00B04210D129685D4C4F
S31508004780C80741F2883A52D06868DFF86C91032866
S3150800479008D00228206826D04005002825DB0120FD
S315080047A0BDE8F08720688001F9D5E068E068534BDA
S315080047B0C0F30310401CB3FBF0F0E268C2F3062214
S315080047C05043E268C2F34162521C5200B0FBF2F059
S315080047D0484515D9A06810F0F00F0AD088070FD5FC
S315080047E0A86830B10CE08003D7E700F0D3F8484555
S315080047F006D9A06820F0F00040F08000A06080276D
S31508004800A068696820F003000843A060FFF730FD40
S31508004810814605E0FFF72CFDA0EB090151453AD882
S31508004820A068696800F00C00B0EB810FF2D1286827
S31508004830810714D5400703D5A06840F4E060A0605E
S315080048402878000705D5A06820F4605040F4E06099
S31508004850A060A068A96820F0F000084304E0802F53
S3150800486003D1A06820F0F000A060D8F800104046F8
S3150800487001F00F01B14216D9016821F00F01314349
S315080048800160FFF7F5FC074607E000BFFFF7F0FCFD
S31508004890C11B514501D9032082E7D8F8000000F072
S315080048A00F00B042F2D12878400705D5A068E9681C
S315080048B020F4E0600843A0602878000706D5A068C1
S315080048C0296920F4605040EAC100A06000F062F84F
S315080048D0A1680B4AC1F30311515C01F01F01C840DE
S315080048E00849086008480068BDE8F047FFF7DEBCDD
S315080048F0002002400010024000B4C4040024F40062
S31508004900309B0008180000201C0000200F220260BF
S315080049100C4A936803F003034360936803F0F003BB
S315080049208360936803F4E063C36092684FF4E063BE
S3150800493003EAD20202610448006800F00F0008602A
S315080049407047000000100240002002400548064952
S3150800495000688968054AC1F30221515C01F01F010C
S31508004960C84070471800002000100240409B00080D
S315080049700548064900688968054AC1F3C221515CA1
S3150800498001F01F01C84070471800002000100240BF
S31508004990409B000813498868C0F381021248012A1F
S315080049A00AD08A68C2F38102022A05D08A68C2F34D
S315080049B08102032A01D000207047CA6802F0030367
S315080049C0CA68C2F30312521CB0FBF2F0CA68C9687F
S315080049D0C2F306225043C1F34161491C4900B0FBAA
S315080049E0F1F07047001002400024F4002DE9F84366
S315080049F004007AD02078F84DC00747D0A868E9683F
S31508004A0000F00C0001F003010C2802D0082817D08A
S31508004A1001E0032914D06068B0F5803F17D0B0F5DF
S31508004A20A02F286817D020F480302860286820F442
S31508004A30802028606068E0B1FFF71AFC064614E09B
S31508004A402868800322D560680028D2D01EE028682E
S31508004A5040F48030EDE740F480202860F7E700BF97
S31508004A60FFF706FC801B642870D828688003F7D5F2
S31508004A700CE0FFF7FDFB064605E000BFFFF7F8FB75
S31508004A80801B6428F0D828688003F7D4207880072C
S31508004A904CD5A868E96800F00C0001F003010C2861
S31508004AA002D004280DD001E002290AD0E0680028C7
S31508004AB028682BD040F480702860FFF7D9FB06469B
S31508004AC019E02868400502D5E068002891D0686892
S31508004AD0217C20F0FE4040EA01606860BF4800681B
S31508004AE0FFF7E4FB002800D120E072E1FFF7C0FBE6
S31508004AF0801B0228B8D828684005F7D56868217C45
S31508004B0020F0FE4040EA016068600FE020F4807003
S31508004B102860FFF7ADFB064605E000BFFFF7A8FBD8
S31508004B20801B0228A0D828684005F7D420780007FB
S31508004B3029D560690028D5F8940013D040F0010003
S31508004B40C5F89400FFF794FB064606E090E000BF20
S31508004B50FFF78EFB801B022886D8D5F894008007BD
S31508004B60F6D510E020F00100C5F89400FFF780FBA9
S31508004B70064604E0FFF77CFB801B022878D8D5F8A8
S31508004B8094008007F6D42078400761D5A86D0026E2
S31508004B90C00008D4A86D40F08050A865A86D01260D
S31508004BA000F0805000908E480168C90511D401684C
S31508004BB0804641F480710160FFF75AFB074604E01E
S31508004BC0FFF756FBC01B022852D8D8F80000C005CC
S31508004BD0F6D5A068012815D00528D5F8900016D076
S31508004BE020F00100C5F89000D5F8900020F00400E8
S31508004BF0C5F89000A06841F28838B8B1FFF738FBCD
S31508004C0007460EE0D5F8900040F00100F0E740F0C6
S31508004C100400C5F89000F5E7FFF72AFBC11B4145DC
S31508004C2026D8D5F890008007F6D50CE0FFF720FBCC
S31508004C30074604E0FFF71CFBC11B414518D8D5F809
S31508004C4090008007F6D41EB1A86D20F08050A865A4
S31508004C502078800629D5A0690028D5F8980013D0B1
S31508004C6040F00100C5F89800FFF702FB064606E08B
S31508004C7075E000BFFFF7FCFA801B02286FD8D5F84D
S31508004C8098008007F6D510E020F00100C5F89800D6
S31508004C90FFF7EEFA064604E0FFF7EAFA801B022859
S31508004CA05DD8D5F898008007F6D4E069F0B3A9680E
S31508004CB0C1F3810103295DD00228286820F080709D
S31508004CC0286003D0FFF7D4FA04464BE0FFF7D0FA82
S31508004CD0064604E0FFF7CCFA801B02283FD828686E
S31508004CE08001F7D4F4E908016FF00F0202EB011115
S31508004CF00843218A5204490802EB4151A26841EA55
S31508004D0002210843217D4FF07E42490802EB4161AA
S31508004D100843217B40EAC160E968324A11400843EA
S31508004D20E860286840F08070286000E05EE0E86887
S31508004D3040F08070E860FFF79BFA044605E000BF84
S31508004D40FFF796FA001B022809D828688001F7D5CC
S31508004D504CE000BFFFF78CFA001B022802D903209B
S31508004D60BDE8F88328688001F4D4E8681E4908403D
S31508004D70E8603BE00128F3D0E868226A00F0030106
S31508004D80914226D1616A00F0F00209011039914278
S31508004D901FD1A26A00F4FE41B1EB022F19D194F893
S31508004DA02C2000F07841B1EBC26F12D1218E00F4AD
S31508004DB0C00249084905A1F50011914209D194F8A4
S31508004DC0341000F0C06049084906A1F1007181421B
S31508004DD00CD00120C4E70000001002401C0000208F
S31508004DE0007000400C809F01FCFFEEFE0020B7E734
S31508004DF070B5040009D0606A002540B12561656177
S31508004E00A56294F85D0040B10CE0012070BD6068B1
S31508004E10B0F5827FF4D0E561F2E784F85C5020466D
S31508004E2000F05CF8022084F85D002068016821F033
S31508004E3040010160E1684FF4E062914201D9002027
S31508004E4001E04FF48050B1F5706F02D0914200D066
S31508004E50A562A188228901F4827102F404421143F1
S31508004E60227C02F002021143227D02F00102114364
S31508004E70228B02F400721143227F02F0380211439A
S31508004E8094F8202002F080021143228D02F4005289
S31508004E90114322681160A169042202EA114194F8BB
S31508004EA0242000F4805002F01002114394F83420B4
S31508004EB002F008021143A28902F470621143014309
S31508004EC0206841602068C16921F40061C1612566D6
S31508004ED0012084F85D00002070BD000010B586B082
S31508004EE0044614216846FBF771FB1249206888427C
S31508004EF01ED11148016E41F480510166016E01F41C
S31508004F0080510591C16C41F00101C164C06C6946CC
S31508004F1000F001000590E02000900220019000209A
S31508004F2002900390052004904FF09040FFF76EF82A
S31508004F3006B010BD00300140001002402DE9FF5FA9
S31508004F401D46934604464FF001090E9EFFF790F959
S31508004F50074694F85D006168012806D0B1F5827F9E
S31508004F6039D1A168B1BB042835D1019800287CD075
S31508004F70BBF1000FFBD0002DF9D094F85C00012896
S31508004F8029D04FF0010A84F85CA094F85D00042843
S31508004F9002D0052084F85D004FF00008C4F8608050
S31508004FA0C4F840B0A4F84650A4F844500199A16347
S31508004FB0E587A587C4F84C80C4F85080E0684FF4AC
S31508004FC0E061884201D8012D09D92068426822F497
S31508004FD0805208E0FFE7022004B0BDE8F09F206891
S31508004FE0426842F48052426020680268520603D43E
S31508004FF0026842F040020260E0688842606846D96A
S3150800500008B1012D3BD1A06B01882068C160A06B57
S31508005010801CA063E08F401EE08730E0206881682E
S3150800502089070FD5E18F69B1B9F1010F0AD1A16BD3
S315080050300988C160A06B801CA063E08F401EE087D2
S315080050404FF0000920688168C90711D0B4F84610E6
S3150800505071B1C068216C0880206C801C2064B4F88B
S315080050604600401EA4F8460000E09EE04FF0010905
S31508005070FFF7FEF8C01BB04201D3701C74D1E08F55
S315080050800028CBD1B4F846000028C7D175E008B18E
S31508005090012D6BD1E08F0128A06B08D92168008803
S315080050A0C860A06B801CA063E08F801E07E02168A3
S315080050B000780873A06B401CA063E08F401EE08751
S315080050C054E02068816889071AD5E18FC1B1B9F122
S315080050D0010F15D1E18F0129A16B07D90988C16094
S315080050E0A06B801CA063E08F801E06E00978017320
S315080050F0A06B401CA063E08F401EE0874FF00009BC
S3150800510020688168C90728D0B4F8461029B3B4F8CE
S315080051104610012914D9C068216C0880206C801CAF
S315080051202064B4F84600801EA4F84600B4F8460089
S31508005130012810D82068416841F4805141600AE08E
S31508005140007B216C0870206C401C2064B4F8460073
S31508005150401EA4F846004FF00109FFF789F8C01B66
S31508005160B04202D3701C01D012E08EB1E08F002845
S31508005170A7D1B4F846000028A3D13A4631462046BE
S3150800518001F03AFB50B12020206684F85C800CE0E0
S3150800519084F85DA084F85C8003201DE784F85DA090
S315080051A084F85C80206E0028F7D0012014E7704749
S315080051B07047704730B590F83C20012A42D001224A
S315080051C080F83C20CA688B6822F440721A434B6800
S315080051D022F480621A430B6822F400621A430B69B0
S315080051E022F480521A434B6922F400521A430B6B7D
S315080051F022F480421A430B8B22F4702242EA0342BD
S31508005200CB6922F080521A430F4D03680024AB4243
S3150800521002D00E4DAB4210D10D8D22F4700242EA37
S3150800522005520D6A22F080722A434D6A22F00072F6
S315080052302A43C96A22F000520A435A6480F83C405D
S31508005240002030BD022030BD002C01400034014052
S315080052507047704770470000F0B590F83C20012A67
S315080052603AD0012580F83C50022280F83D20036898
S315080052705A689C68194E1A4FB34201D0BB4204D1F2
S3150800528022F4700C4A6842EA0C02DFF858C002EAB7
S315080052900C02D1F800C04CEA020CC3F804C002683C
S315080052A0B2420DD0B2F1804F0AD00F4B9A4207D0C6
S315080052B00E4B9A4204D0BA4202D00D4B9A4204D100
S315080052C0896824F080031943916080F83D500021D5
S315080052D080F83C100846F0BD0220F0BD002C0140C5
S315080052E0003401408FFFFFFD000400400008004025
S315080052F00040014010B50446022249B104290ED0E7
S31508005300082913D094F84700012816D0012010BDAB
S3150800531094F844000128F9D184F844200FE094F861
S3150800532045000128F2D184F8452008E094F84600A3
S315080053300128EBD184F8462001E084F847200422AE
S31508005340206801F060FD2068416C41F40041416429
S315080053501049206888420ED0B0F1804F0BD00E4914
S31508005360884208D00D49884205D00D49884202D0A6
S315080053700C49884207D181680B4A1140062906D094
S31508005380B1F5803F03D0016841F0010101600020BA
S3150800539010BD0000002C0140000400400008004039
S315080053A0003401400040014007000100704710B575
S315080053B0040003D094F83D0010B107E0012010BDA9
S315080053C0002084F83C00204600F022F8022084F8E9
S315080053D03D00211D206801F0ABFC012084F848003F
S315080053E084F83E0084F83F0084F8400084F84100C1
S315080053F084F8420084F8430084F8440084F84500A1
S3150800540084F8460084F8470084F83D00002010BD63
S3150800541038B5054600681D4A1D49904211D1086EE7
S3150800542040F400600866086E002200F400600090F0
S3150800543005211920FEF7AAFFBDE838401920FEF716
S3150800544097BF144A904220D1886D40F002008865C3
S31508005450886D124C00F0020000900F4820603D2035
S3150800546060601020A06000208021C4E90301490083
S3150800547061618900C4E9061020622046FEF70EFD28
S3150800548008B1FDF715FC6C62A56238BD002C014019
S31508005490001002400004004058000240BC040020EE
S315080054A090F83D10012901D001207047022180F8AB
S315080054B03D100168CA6842F00102CA6000681049D6
S315080054C088420ED0B0F1804F0BD00E49884208D0E2
S315080054D00D49884205D00D49884202D00C498842B8
S315080054E007D181680B4A1140062906D0B1F5803FDD
S315080054F003D0016841F001010160002070470000F7
S31508005500002C01400004004000080040003401401F
